{
  "_format": "hh-sol-artifact-1",
  "contractName": "CreateWaifu",
  "sourceName": "contracts/CreateWaifu.sol",
  "abi": [
    {
      "inputs": [
        {
          "internalType": "address",
          "name": "_VRFCoordinator",
          "type": "address"
        },
        {
          "internalType": "address",
          "name": "_LinkToken",
          "type": "address"
        },
        {
          "internalType": "bytes32",
          "name": "_keyhash",
          "type": "bytes32"
        }
      ],
      "stateMutability": "nonpayable",
      "type": "constructor"
    },
    {
      "anonymous": false,
      "inputs": [
        {
          "indexed": true,
          "internalType": "address",
          "name": "owner",
          "type": "address"
        },
        {
          "indexed": true,
          "internalType": "address",
          "name": "approved",
          "type": "address"
        },
        {
          "indexed": true,
          "internalType": "uint256",
          "name": "tokenId",
          "type": "uint256"
        }
      ],
      "name": "Approval",
      "type": "event"
    },
    {
      "anonymous": false,
      "inputs": [
        {
          "indexed": true,
          "internalType": "address",
          "name": "owner",
          "type": "address"
        },
        {
          "indexed": true,
          "internalType": "address",
          "name": "operator",
          "type": "address"
        },
        {
          "indexed": false,
          "internalType": "bool",
          "name": "approved",
          "type": "bool"
        }
      ],
      "name": "ApprovalForAll",
      "type": "event"
    },
    {
      "anonymous": false,
      "inputs": [
        {
          "indexed": true,
          "internalType": "address",
          "name": "previousOwner",
          "type": "address"
        },
        {
          "indexed": true,
          "internalType": "address",
          "name": "newOwner",
          "type": "address"
        }
      ],
      "name": "OwnershipTransferred",
      "type": "event"
    },
    {
      "anonymous": false,
      "inputs": [
        {
          "indexed": false,
          "internalType": "uint256",
          "name": "ad",
          "type": "uint256"
        },
        {
          "indexed": false,
          "internalType": "uint256",
          "name": "status",
          "type": "uint256"
        }
      ],
      "name": "TradeStatusChange",
      "type": "event"
    },
    {
      "anonymous": false,
      "inputs": [
        {
          "indexed": true,
          "internalType": "address",
          "name": "from",
          "type": "address"
        },
        {
          "indexed": true,
          "internalType": "address",
          "name": "to",
          "type": "address"
        },
        {
          "indexed": true,
          "internalType": "uint256",
          "name": "tokenId",
          "type": "uint256"
        }
      ],
      "name": "Transfer",
      "type": "event"
    },
    {
      "inputs": [],
      "name": "LinkToken",
      "outputs": [
        {
          "internalType": "address",
          "name": "",
          "type": "address"
        }
      ],
      "stateMutability": "view",
      "type": "function"
    },
    {
      "inputs": [],
      "name": "VRFCoordinator",
      "outputs": [
        {
          "internalType": "address",
          "name": "",
          "type": "address"
        }
      ],
      "stateMutability": "view",
      "type": "function"
    },
    {
      "inputs": [
        {
          "internalType": "address",
          "name": "to",
          "type": "address"
        },
        {
          "internalType": "uint256",
          "name": "tokenId",
          "type": "uint256"
        }
      ],
      "name": "approve",
      "outputs": [],
      "stateMutability": "nonpayable",
      "type": "function"
    },
    {
      "inputs": [
        {
          "internalType": "address",
          "name": "owner",
          "type": "address"
        }
      ],
      "name": "balanceOf",
      "outputs": [
        {
          "internalType": "uint256",
          "name": "",
          "type": "uint256"
        }
      ],
      "stateMutability": "view",
      "type": "function"
    },
    {
      "inputs": [],
      "name": "baseURI",
      "outputs": [
        {
          "internalType": "string",
          "name": "",
          "type": "string"
        }
      ],
      "stateMutability": "view",
      "type": "function"
    },
    {
      "inputs": [
        {
          "internalType": "uint256",
          "name": "_tokenId",
          "type": "uint256"
        }
      ],
      "name": "buyWaifu",
      "outputs": [],
      "stateMutability": "payable",
      "type": "function"
    },
    {
      "inputs": [
        {
          "internalType": "uint256",
          "name": "",
          "type": "uint256"
        }
      ],
      "name": "forAuction",
      "outputs": [
        {
          "internalType": "uint256",
          "name": "",
          "type": "uint256"
        }
      ],
      "stateMutability": "view",
      "type": "function"
    },
    {
      "inputs": [
        {
          "internalType": "uint256",
          "name": "tokenId",
          "type": "uint256"
        }
      ],
      "name": "getApproved",
      "outputs": [
        {
          "internalType": "address",
          "name": "",
          "type": "address"
        }
      ],
      "stateMutability": "view",
      "type": "function"
    },
    {
      "inputs": [
        {
          "internalType": "uint256",
          "name": "_tokenId",
          "type": "uint256"
        }
      ],
      "name": "getAuctionTrade",
      "outputs": [
        {
          "components": [
            {
              "internalType": "address",
              "name": "seller",
              "type": "address"
            },
            {
              "internalType": "uint256",
              "name": "tokenId",
              "type": "uint256"
            },
            {
              "internalType": "uint256",
              "name": "price",
              "type": "uint256"
            },
            {
              "internalType": "uint256",
              "name": "status",
              "type": "uint256"
            }
          ],
          "internalType": "struct CreateWaifu.auctionTrade",
          "name": "trade_",
          "type": "tuple"
        }
      ],
      "stateMutability": "view",
      "type": "function"
    },
    {
      "inputs": [],
      "name": "getNumberOfWaifus",
      "outputs": [
        {
          "internalType": "uint256",
          "name": "",
          "type": "uint256"
        }
      ],
      "stateMutability": "view",
      "type": "function"
    },
    {
      "inputs": [
        {
          "internalType": "uint256",
          "name": "tokenId",
          "type": "uint256"
        }
      ],
      "name": "getTokenURI",
      "outputs": [
        {
          "internalType": "string",
          "name": "",
          "type": "string"
        }
      ],
      "stateMutability": "view",
      "type": "function"
    },
    {
      "inputs": [
        {
          "internalType": "uint256",
          "name": "tokenId",
          "type": "uint256"
        }
      ],
      "name": "getWaifuStats",
      "outputs": [
        {
          "internalType": "string",
          "name": "",
          "type": "string"
        },
        {
          "internalType": "string",
          "name": "",
          "type": "string"
        },
        {
          "internalType": "string",
          "name": "",
          "type": "string"
        },
        {
          "internalType": "string",
          "name": "",
          "type": "string"
        },
        {
          "internalType": "uint256",
          "name": "",
          "type": "uint256"
        },
        {
          "internalType": "uint256",
          "name": "",
          "type": "uint256"
        },
        {
          "internalType": "uint256",
          "name": "",
          "type": "uint256"
        },
        {
          "internalType": "uint256",
          "name": "",
          "type": "uint256"
        },
        {
          "internalType": "uint256",
          "name": "",
          "type": "uint256"
        },
        {
          "internalType": "uint256",
          "name": "",
          "type": "uint256"
        },
        {
          "internalType": "uint256",
          "name": "",
          "type": "uint256"
        }
      ],
      "stateMutability": "view",
      "type": "function"
    },
    {
      "inputs": [
        {
          "internalType": "address",
          "name": "_address",
          "type": "address"
        }
      ],
      "name": "getWaifusCount",
      "outputs": [
        {
          "internalType": "uint256",
          "name": "",
          "type": "uint256"
        }
      ],
      "stateMutability": "view",
      "type": "function"
    },
    {
      "inputs": [
        {
          "internalType": "uint256",
          "name": "",
          "type": "uint256"
        }
      ],
      "name": "hostedAuctions",
      "outputs": [
        {
          "internalType": "address",
          "name": "",
          "type": "address"
        }
      ],
      "stateMutability": "view",
      "type": "function"
    },
    {
      "inputs": [
        {
          "internalType": "address",
          "name": "owner",
          "type": "address"
        },
        {
          "internalType": "address",
          "name": "operator",
          "type": "address"
        }
      ],
      "name": "isApprovedForAll",
      "outputs": [
        {
          "internalType": "bool",
          "name": "",
          "type": "bool"
        }
      ],
      "stateMutability": "view",
      "type": "function"
    },
    {
      "inputs": [],
      "name": "name",
      "outputs": [
        {
          "internalType": "string",
          "name": "",
          "type": "string"
        }
      ],
      "stateMutability": "view",
      "type": "function"
    },
    {
      "inputs": [],
      "name": "owner",
      "outputs": [
        {
          "internalType": "address",
          "name": "",
          "type": "address"
        }
      ],
      "stateMutability": "view",
      "type": "function"
    },
    {
      "inputs": [
        {
          "internalType": "uint256",
          "name": "tokenId",
          "type": "uint256"
        }
      ],
      "name": "ownerOf",
      "outputs": [
        {
          "internalType": "address",
          "name": "",
          "type": "address"
        }
      ],
      "stateMutability": "view",
      "type": "function"
    },
    {
      "inputs": [
        {
          "internalType": "uint256",
          "name": "_tokenId",
          "type": "uint256"
        },
        {
          "internalType": "uint256",
          "name": "_price",
          "type": "uint256"
        }
      ],
      "name": "putForAuction",
      "outputs": [],
      "stateMutability": "nonpayable",
      "type": "function"
    },
    {
      "inputs": [],
      "name": "randomResult",
      "outputs": [
        {
          "internalType": "uint256",
          "name": "",
          "type": "uint256"
        }
      ],
      "stateMutability": "view",
      "type": "function"
    },
    {
      "inputs": [
        {
          "internalType": "bytes32",
          "name": "requestId",
          "type": "bytes32"
        },
        {
          "internalType": "uint256",
          "name": "randomness",
          "type": "uint256"
        }
      ],
      "name": "rawFulfillRandomness",
      "outputs": [],
      "stateMutability": "nonpayable",
      "type": "function"
    },
    {
      "inputs": [],
      "name": "renounceOwnership",
      "outputs": [],
      "stateMutability": "nonpayable",
      "type": "function"
    },
    {
      "inputs": [
        {
          "internalType": "uint256",
          "name": "userProvidedSeed",
          "type": "uint256"
        },
        {
          "internalType": "string",
          "name": "name",
          "type": "string"
        },
        {
          "internalType": "string",
          "name": "origin",
          "type": "string"
        },
        {
          "internalType": "string",
          "name": "description",
          "type": "string"
        },
        {
          "internalType": "string",
          "name": "waifuLink",
          "type": "string"
        }
      ],
      "name": "requestNewRandomWaifu",
      "outputs": [
        {
          "internalType": "bytes32",
          "name": "",
          "type": "bytes32"
        }
      ],
      "stateMutability": "nonpayable",
      "type": "function"
    },
    {
      "inputs": [
        {
          "internalType": "address",
          "name": "from",
          "type": "address"
        },
        {
          "internalType": "address",
          "name": "to",
          "type": "address"
        },
        {
          "internalType": "uint256",
          "name": "tokenId",
          "type": "uint256"
        }
      ],
      "name": "safeTransferFrom",
      "outputs": [],
      "stateMutability": "nonpayable",
      "type": "function"
    },
    {
      "inputs": [
        {
          "internalType": "address",
          "name": "from",
          "type": "address"
        },
        {
          "internalType": "address",
          "name": "to",
          "type": "address"
        },
        {
          "internalType": "uint256",
          "name": "tokenId",
          "type": "uint256"
        },
        {
          "internalType": "bytes",
          "name": "_data",
          "type": "bytes"
        }
      ],
      "name": "safeTransferFrom",
      "outputs": [],
      "stateMutability": "nonpayable",
      "type": "function"
    },
    {
      "inputs": [
        {
          "internalType": "address",
          "name": "",
          "type": "address"
        },
        {
          "internalType": "uint256",
          "name": "",
          "type": "uint256"
        }
      ],
      "name": "senderToTokenId",
      "outputs": [
        {
          "internalType": "uint256",
          "name": "",
          "type": "uint256"
        }
      ],
      "stateMutability": "view",
      "type": "function"
    },
    {
      "inputs": [
        {
          "internalType": "address",
          "name": "operator",
          "type": "address"
        },
        {
          "internalType": "bool",
          "name": "approved",
          "type": "bool"
        }
      ],
      "name": "setApprovalForAll",
      "outputs": [],
      "stateMutability": "nonpayable",
      "type": "function"
    },
    {
      "inputs": [
        {
          "internalType": "uint256",
          "name": "tokenId",
          "type": "uint256"
        },
        {
          "internalType": "string",
          "name": "_tokenURI",
          "type": "string"
        }
      ],
      "name": "setTokenURI",
      "outputs": [],
      "stateMutability": "nonpayable",
      "type": "function"
    },
    {
      "inputs": [
        {
          "internalType": "bytes4",
          "name": "interfaceId",
          "type": "bytes4"
        }
      ],
      "name": "supportsInterface",
      "outputs": [
        {
          "internalType": "bool",
          "name": "",
          "type": "bool"
        }
      ],
      "stateMutability": "view",
      "type": "function"
    },
    {
      "inputs": [],
      "name": "symbol",
      "outputs": [
        {
          "internalType": "string",
          "name": "",
          "type": "string"
        }
      ],
      "stateMutability": "view",
      "type": "function"
    },
    {
      "inputs": [
        {
          "internalType": "uint256",
          "name": "index",
          "type": "uint256"
        }
      ],
      "name": "tokenByIndex",
      "outputs": [
        {
          "internalType": "uint256",
          "name": "",
          "type": "uint256"
        }
      ],
      "stateMutability": "view",
      "type": "function"
    },
    {
      "inputs": [
        {
          "internalType": "address",
          "name": "owner",
          "type": "address"
        },
        {
          "internalType": "uint256",
          "name": "index",
          "type": "uint256"
        }
      ],
      "name": "tokenOfOwnerByIndex",
      "outputs": [
        {
          "internalType": "uint256",
          "name": "",
          "type": "uint256"
        }
      ],
      "stateMutability": "view",
      "type": "function"
    },
    {
      "inputs": [
        {
          "internalType": "uint256",
          "name": "tokenId",
          "type": "uint256"
        }
      ],
      "name": "tokenURI",
      "outputs": [
        {
          "internalType": "string",
          "name": "",
          "type": "string"
        }
      ],
      "stateMutability": "view",
      "type": "function"
    },
    {
      "inputs": [],
      "name": "totalSupply",
      "outputs": [
        {
          "internalType": "uint256",
          "name": "",
          "type": "uint256"
        }
      ],
      "stateMutability": "view",
      "type": "function"
    },
    {
      "inputs": [
        {
          "internalType": "uint256",
          "name": "",
          "type": "uint256"
        }
      ],
      "name": "trades",
      "outputs": [
        {
          "internalType": "address",
          "name": "seller",
          "type": "address"
        },
        {
          "internalType": "uint256",
          "name": "tokenId",
          "type": "uint256"
        },
        {
          "internalType": "uint256",
          "name": "price",
          "type": "uint256"
        },
        {
          "internalType": "uint256",
          "name": "status",
          "type": "uint256"
        }
      ],
      "stateMutability": "view",
      "type": "function"
    },
    {
      "inputs": [
        {
          "internalType": "address",
          "name": "from",
          "type": "address"
        },
        {
          "internalType": "address",
          "name": "to",
          "type": "address"
        },
        {
          "internalType": "uint256",
          "name": "tokenId",
          "type": "uint256"
        }
      ],
      "name": "transferFrom",
      "outputs": [],
      "stateMutability": "nonpayable",
      "type": "function"
    },
    {
      "inputs": [
        {
          "internalType": "address",
          "name": "newOwner",
          "type": "address"
        }
      ],
      "name": "transferOwnership",
      "outputs": [],
      "stateMutability": "nonpayable",
      "type": "function"
    },
    {
      "inputs": [
        {
          "internalType": "uint256",
          "name": "",
          "type": "uint256"
        }
      ],
      "name": "waifus",
      "outputs": [
        {
          "internalType": "string",
          "name": "name",
          "type": "string"
        },
        {
          "internalType": "string",
          "name": "origin",
          "type": "string"
        },
        {
          "internalType": "uint256",
          "name": "age",
          "type": "uint256"
        },
        {
          "internalType": "uint256",
          "name": "height",
          "type": "uint256"
        },
        {
          "internalType": "uint256",
          "name": "weight",
          "type": "uint256"
        },
        {
          "internalType": "uint256",
          "name": "bust",
          "type": "uint256"
        },
        {
          "internalType": "uint256",
          "name": "waist",
          "type": "uint256"
        },
        {
          "internalType": "uint256",
          "name": "hip",
          "type": "uint256"
        },
        {
          "internalType": "string",
          "name": "description",
          "type": "string"
        },
        {
          "internalType": "uint256",
          "name": "rating",
          "type": "uint256"
        },
        {
          "internalType": "string",
          "name": "waifuLink",
          "type": "string"
        }
      ],
      "stateMutability": "view",
      "type": "function"
    }
  ],
  "bytecode": "0x60806040523480156200001157600080fd5b50604051620060ca380380620060ca8339818101604052620000379190810190620004d2565b82826040518060400160405280600b81526020017f43726561746557616966750000000000000000000000000000000000000000008152506040518060400160405280600381526020017f5746550000000000000000000000000000000000000000000000000000000000815250620000bd6301ffc9a760e01b6200031560201b60201c565b8160069080519060200190620000d5929190620003f5565b508060079080519060200190620000ee929190620003f5565b50620001076380ac58cd60e01b6200031560201b60201c565b6200011f635b5e139f60e01b6200031560201b60201c565b6200013763780e9d6360e01b6200031560201b60201c565b505081600b60006101000a81548173ffffffffffffffffffffffffffffffffffffffff021916908373ffffffffffffffffffffffffffffffffffffffff16021790555080600a60006101000a81548173ffffffffffffffffffffffffffffffffffffffff021916908373ffffffffffffffffffffffffffffffffffffffff16021790555050506000620001cf620003ed60201b60201c565b905080600d60006101000a81548173ffffffffffffffffffffffffffffffffffffffff021916908373ffffffffffffffffffffffffffffffffffffffff1602179055508073ffffffffffffffffffffffffffffffffffffffff16600073ffffffffffffffffffffffffffffffffffffffff167f8be0079c531659141344cd1fd0a4f28419497f9722a3daafe3b4186f6b6457e060405160405180910390a35082601160006101000a81548173ffffffffffffffffffffffffffffffffffffffff021916908373ffffffffffffffffffffffffffffffffffffffff16021790555081601260006101000a81548173ffffffffffffffffffffffffffffffffffffffff021916908373ffffffffffffffffffffffffffffffffffffffff16021790555080600e81905550655af3107a4000600f819055506000601b819055505050506200060f565b63ffffffff60e01b817bffffffffffffffffffffffffffffffffffffffffffffffffffffffff1916141562000381576040517f08c379a000000000000000000000000000000000000000000000000000000000815260040162000378906200056a565b60405180910390fd5b6001600080837bffffffffffffffffffffffffffffffffffffffffffffffffffffffff19167bffffffffffffffffffffffffffffffffffffffffffffffffffffffff1916815260200190815260200160002060006101000a81548160ff02191690831515021790555050565b600033905090565b828054600181600116156101000203166002900490600052602060002090601f016020900481019282601f106200043857805160ff191683800117855562000469565b8280016001018555821562000469579182015b82811115620004685782518255916020019190600101906200044b565b5b5090506200047891906200047c565b5090565b620004a191905b808211156200049d57600081600090555060010162000483565b5090565b90565b600081519050620004b581620005db565b92915050565b600081519050620004cc81620005f5565b92915050565b600080600060608486031215620004e857600080fd5b6000620004f886828701620004a4565b93505060206200050b86828701620004a4565b92505060406200051e86828701620004bb565b9150509250925092565b600062000537601c836200058c565b91507f4552433136353a20696e76616c696420696e74657266616365206964000000006000830152602082019050919050565b60006020820190508181036000830152620005858162000528565b9050919050565b600082825260208201905092915050565b6000620005aa82620005bb565b9050919050565b6000819050919050565b600073ffffffffffffffffffffffffffffffffffffffff82169050919050565b620005e6816200059d565b8114620005f257600080fd5b50565b6200060081620005b1565b81146200060c57600080fd5b50565b615aab806200061f6000396000f3fe6080604052600436106102255760003560e01c80636d25e3fe11610123578063a5cb1c41116100ab578063e985e9c51161006f578063e985e9c5146108ca578063f17b0a6514610907578063f2fde38b14610930578063fcaefb1914610959578063fd3582cc1461097557610225565b8063a5cb1c4114610799578063b809a6ed146107e0578063b88d4fde14610827578063c8537e4f14610850578063c87b56dd1461088d57610225565b806393049fef116100f257806393049fef146106a257806394985ddd146106df57806395d89b4114610708578063a22cb46514610733578063a4693b921461075c57610225565b80636d25e3fe146105e657806370a0823114610623578063715018a6146106605780638da5cb5b1461067757610225565b806333b60863116101b15780634f6ccce7116101755780634f6ccce7146104d95780634f8e2fdf146105165780635ce58372146105415780636352211e1461057e5780636c0360eb146105bb57610225565b806333b60863146103f257806339ab4dac1461041d5780633bb3a24d1461044857806342619f661461048557806342842e0e146104b057610225565b8063162094c4116101f8578063162094c4146102f857806318160ddd146103215780631e6c598e1461034c57806323b872dd1461038c5780632f745c59146103b557610225565b806301ffc9a71461022a57806306fdde0314610267578063081812fc14610292578063095ea7b3146102cf575b600080fd5b34801561023657600080fd5b50610251600480360361024c9190810190614379565b6109b2565b60405161025e91906151b2565b60405180910390f35b34801561027357600080fd5b5061027c610a19565b6040516102899190615256565b60405180910390f35b34801561029e57600080fd5b506102b960048036036102b491908101906143cb565b610abb565b6040516102c691906150c8565b60405180910390f35b3480156102db57600080fd5b506102f660048036036102f191908101906142d8565b610b40565b005b34801561030457600080fd5b5061031f600480360361031a919081019061441d565b610c58565b005b34801561032d57600080fd5b50610336610cb6565b6040516103439190615741565b60405180910390f35b34801561035857600080fd5b50610373600480360361036e91908101906143cb565b610cc7565b604051610383949392919061516d565b60405180910390f35b34801561039857600080fd5b506103b360048036036103ae91908101906141d2565b610d17565b005b3480156103c157600080fd5b506103dc60048036036103d791908101906142d8565b610d77565b6040516103e99190615741565b60405180910390f35b3480156103fe57600080fd5b50610407610dd2565b60405161041491906150c8565b60405180910390f35b34801561042957600080fd5b50610432610df8565b60405161043f9190615741565b60405180910390f35b34801561045457600080fd5b5061046f600480360361046a91908101906143cb565b610e05565b60405161047c9190615256565b60405180910390f35b34801561049157600080fd5b5061049a610e17565b6040516104a79190615741565b60405180910390f35b3480156104bc57600080fd5b506104d760048036036104d291908101906141d2565b610e1d565b005b3480156104e557600080fd5b5061050060048036036104fb91908101906143cb565b610e3d565b60405161050d9190615741565b60405180910390f35b34801561052257600080fd5b5061052b610e60565b60405161053891906150c8565b60405180910390f35b34801561054d57600080fd5b50610568600480360361056391908101906143cb565b610e86565b6040516105759190615741565b60405180910390f35b34801561058a57600080fd5b506105a560048036036105a091908101906143cb565b610ea7565b6040516105b291906150c8565b60405180910390f35b3480156105c757600080fd5b506105d0610ede565b6040516105dd9190615256565b60405180910390f35b3480156105f257600080fd5b5061060d600480360361060891908101906143cb565b610f80565b60405161061a91906150c8565b60405180910390f35b34801561062f57600080fd5b5061064a6004803603610645919081019061416d565b610fbc565b6040516106579190615741565b60405180910390f35b34801561066c57600080fd5b5061067561107b565b005b34801561068357600080fd5b5061068c6111b8565b60405161069991906150c8565b60405180910390f35b3480156106ae57600080fd5b506106c960048036036106c491908101906142d8565b6111e2565b6040516106d69190615741565b60405180910390f35b3480156106eb57600080fd5b506107066004803603610701919081019061433d565b611210565b005b34801561071457600080fd5b5061071d6112ae565b60405161072a9190615256565b60405180910390f35b34801561073f57600080fd5b5061075a6004803603610755919081019061429c565b611350565b005b34801561076857600080fd5b50610783600480360361077e9190810190614471565b6114d1565b60405161079091906151cd565b60405180910390f35b3480156107a557600080fd5b506107c060048036036107bb91908101906143cb565b6116d4565b6040516107d79b9a99989796959493929190615278565b60405180910390f35b3480156107ec57600080fd5b50610807600480360361080291908101906143cb565b611a50565b60405161081e9b9a9998979695949392919061533f565b60405180910390f35b34801561083357600080fd5b5061084e60048036036108499190810190614221565b611d17565b005b34801561085c57600080fd5b506108776004803603610872919081019061416d565b611d79565b6040516108849190615741565b60405180910390f35b34801561089957600080fd5b506108b460048036036108af91908101906143cb565b611dc5565b6040516108c19190615256565b60405180910390f35b3480156108d657600080fd5b506108f160048036036108ec9190810190614196565b611f48565b6040516108fe91906151b2565b60405180910390f35b34801561091357600080fd5b5061092e60048036036109299190810190614548565b611fdc565b005b34801561093c57600080fd5b506109576004803603610952919081019061416d565b612121565b005b610973600480360361096e91908101906143cb565b6122cd565b005b34801561098157600080fd5b5061099c600480360361099791908101906143cb565b6125b7565b6040516109a99190615726565b60405180910390f35b6000806000837bffffffffffffffffffffffffffffffffffffffffffffffffffffffff19167bffffffffffffffffffffffffffffffffffffffffffffffffffffffff1916815260200190815260200160002060009054906101000a900460ff169050919050565b606060068054600181600116156101000203166002900480601f016020809104026020016040519081016040528092919081815260200182805460018160011615610100020316600290048015610ab15780601f10610a8657610100808354040283529160200191610ab1565b820191906000526020600020905b815481529060010190602001808311610a9457829003601f168201915b5050505050905090565b6000610ac682612664565b610b05576040517f08c379a0000000000000000000000000000000000000000000000000000000008152600401610afc906155e6565b60405180910390fd5b6004600083815260200190815260200160002060009054906101000a900473ffffffffffffffffffffffffffffffffffffffff169050919050565b6000610b4b82610ea7565b90508073ffffffffffffffffffffffffffffffffffffffff168373ffffffffffffffffffffffffffffffffffffffff161415610bbc576040517f08c379a0000000000000000000000000000000000000000000000000000000008152600401610bb3906156a6565b60405180910390fd5b8073ffffffffffffffffffffffffffffffffffffffff16610bdb612681565b73ffffffffffffffffffffffffffffffffffffffff161480610c0a5750610c0981610c04612681565b611f48565b5b610c49576040517f08c379a0000000000000000000000000000000000000000000000000000000008152600401610c4090615566565b60405180910390fd5b610c538383612689565b505050565b610c69610c63612681565b83612742565b610ca8576040517f08c379a0000000000000000000000000000000000000000000000000000000008152600401610c9f906156c6565b60405180910390fd5b610cb28282612820565b5050565b6000610cc26002612894565b905090565b601c6020528060005260406000206000915090508060000160009054906101000a900473ffffffffffffffffffffffffffffffffffffffff16908060010154908060020154908060030154905084565b610d28610d22612681565b82612742565b610d67576040517f08c379a0000000000000000000000000000000000000000000000000000000008152600401610d5e906156c6565b60405180910390fd5b610d728383836128a9565b505050565b6000610dca82600160008673ffffffffffffffffffffffffffffffffffffffff1673ffffffffffffffffffffffffffffffffffffffff168152602001908152602001600020612ac090919063ffffffff16565b905092915050565b601160009054906101000a900473ffffffffffffffffffffffffffffffffffffffff1681565b6000601380549050905090565b6060610e1082611dc5565b9050919050565b60105481565b610e3883838360405180602001604052806000815250611d17565b505050565b600080610e54836002612ada90919063ffffffff16565b50905080915050919050565b601260009054906101000a900473ffffffffffffffffffffffffffffffffffffffff1681565b601d8181548110610e9357fe5b906000526020600020016000915090505481565b6000610ed782604051806060016040528060298152602001615a4d602991396002612b099092919063ffffffff16565b9050919050565b606060098054600181600116156101000203166002900480601f016020809104026020016040519081016040528092919081815260200182805460018160011615610100020316600290048015610f765780601f10610f4b57610100808354040283529160200191610f76565b820191906000526020600020905b815481529060010190602001808311610f5957829003601f168201915b5050505050905090565b60148181548110610f8d57fe5b906000526020600020016000915054906101000a900473ffffffffffffffffffffffffffffffffffffffff1681565b60008073ffffffffffffffffffffffffffffffffffffffff168273ffffffffffffffffffffffffffffffffffffffff16141561102d576040517f08c379a000000000000000000000000000000000000000000000000000000000815260040161102490615586565b60405180910390fd5b611074600160008473ffffffffffffffffffffffffffffffffffffffff1673ffffffffffffffffffffffffffffffffffffffff168152602001908152602001600020612b28565b9050919050565b611083612681565b73ffffffffffffffffffffffffffffffffffffffff166110a16111b8565b73ffffffffffffffffffffffffffffffffffffffff16146110f7576040517f08c379a00000000000000000000000000000000000000000000000000000000081526004016110ee90615626565b60405180910390fd5b600073ffffffffffffffffffffffffffffffffffffffff16600d60009054906101000a900473ffffffffffffffffffffffffffffffffffffffff1673ffffffffffffffffffffffffffffffffffffffff167f8be0079c531659141344cd1fd0a4f28419497f9722a3daafe3b4186f6b6457e060405160405180910390a36000600d60006101000a81548173ffffffffffffffffffffffffffffffffffffffff021916908373ffffffffffffffffffffffffffffffffffffffff160217905550565b6000600d60009054906101000a900473ffffffffffffffffffffffffffffffffffffffff16905090565b601a60205281600052604060002081815481106111fb57fe5b90600052602060002001600091509150505481565b600b60009054906101000a900473ffffffffffffffffffffffffffffffffffffffff1673ffffffffffffffffffffffffffffffffffffffff163373ffffffffffffffffffffffffffffffffffffffff16146112a0576040517f08c379a000000000000000000000000000000000000000000000000000000000815260040161129790615686565b60405180910390fd5b6112aa8282612b3d565b5050565b606060078054600181600116156101000203166002900480601f0160208091040260200160405190810160405280929190818152602001828054600181600116156101000203166002900480156113465780601f1061131b57610100808354040283529160200191611346565b820191906000526020600020905b81548152906001019060200180831161132957829003601f168201915b5050505050905090565b611358612681565b73ffffffffffffffffffffffffffffffffffffffff168273ffffffffffffffffffffffffffffffffffffffff1614156113c6576040517f08c379a00000000000000000000000000000000000000000000000000000000081526004016113bd906154e6565b60405180910390fd5b80600560006113d3612681565b73ffffffffffffffffffffffffffffffffffffffff1673ffffffffffffffffffffffffffffffffffffffff16815260200190815260200160002060008473ffffffffffffffffffffffffffffffffffffffff1673ffffffffffffffffffffffffffffffffffffffff16815260200190815260200160002060006101000a81548160ff0219169083151502179055508173ffffffffffffffffffffffffffffffffffffffff16611480612681565b73ffffffffffffffffffffffffffffffffffffffff167f17307eab39ab6107e8899845ad3d59bd9653f200f220920489ca2b5937696c31836040516114c591906151b2565b60405180910390a35050565b6000600f54600a60009054906101000a900473ffffffffffffffffffffffffffffffffffffffff1673ffffffffffffffffffffffffffffffffffffffff166370a08231306040518263ffffffff1660e01b815260040161153191906150c8565b60206040518083038186803b15801561154957600080fd5b505afa15801561155d573d6000803e3d6000fd5b505050506040513d601f19601f8201168201806040525061158191908101906143f4565b10156115c2576040517f08c379a00000000000000000000000000000000000000000000000000000000081526004016115b990615506565b60405180910390fd5b60006115d3600e54600f5489613091565b9050856015600083815260200190815260200160002090805190602001906115fc929190613e60565b5084601660008381526020019081526020016000209080519060200190611624929190613e60565b508360176000838152602001908152602001600020908051906020019061164c929190613e60565b5082601860008381526020019081526020016000209080519060200190611674929190613e60565b50336019600083815260200190815260200160002060006101000a81548173ffffffffffffffffffffffffffffffffffffffff021916908373ffffffffffffffffffffffffffffffffffffffff1602179055508091505095945050505050565b60608060608060008060008060008060006116ed613ee0565b60138d815481106116fa57fe5b90600052602060002090600b020160405180610160016040529081600082018054600181600116156101000203166002900480601f0160208091040260200160405190810160405280929190818152602001828054600181600116156101000203166002900480156117ad5780601f10611782576101008083540402835291602001916117ad565b820191906000526020600020905b81548152906001019060200180831161179057829003601f168201915b50505050508152602001600182018054600181600116156101000203166002900480601f01602080910402602001604051908101604052809291908181526020018280546001816001161561010002031660029004801561184f5780601f106118245761010080835404028352916020019161184f565b820191906000526020600020905b81548152906001019060200180831161183257829003601f168201915b50505050508152602001600282015481526020016003820154815260200160048201548152602001600582015481526020016006820154815260200160078201548152602001600882018054600181600116156101000203166002900480601f01602080910402602001604051908101604052809291908181526020018280546001816001161561010002031660029004801561192d5780601f106119025761010080835404028352916020019161192d565b820191906000526020600020905b81548152906001019060200180831161191057829003601f168201915b5050505050815260200160098201548152602001600a82018054600181600116156101000203166002900480601f0160208091040260200160405190810160405280929190818152602001828054600181600116156101000203166002900480156119d95780601f106119ae576101008083540402835291602001916119d9565b820191906000526020600020905b8154815290600101906020018083116119bc57829003601f168201915b5050505050815250509050806000015181602001518261010001518361014001518460400151856060015186608001518760a001518860c001518960e001518a61012001518a9a508999508898508797509b509b509b509b509b509b509b509b509b509b509b505091939597999b90929496989a50565b60138181548110611a5d57fe5b90600052602060002090600b0201600091509050806000018054600181600116156101000203166002900480601f016020809104026020016040519081016040528092919081815260200182805460018160011615610100020316600290048015611b095780601f10611ade57610100808354040283529160200191611b09565b820191906000526020600020905b815481529060010190602001808311611aec57829003601f168201915b505050505090806001018054600181600116156101000203166002900480601f016020809104026020016040519081016040528092919081815260200182805460018160011615610100020316600290048015611ba75780601f10611b7c57610100808354040283529160200191611ba7565b820191906000526020600020905b815481529060010190602001808311611b8a57829003601f168201915b505050505090806002015490806003015490806004015490806005015490806006015490806007015490806008018054600181600116156101000203166002900480601f016020809104026020016040519081016040528092919081815260200182805460018160011615610100020316600290048015611c695780601f10611c3e57610100808354040283529160200191611c69565b820191906000526020600020905b815481529060010190602001808311611c4c57829003601f168201915b50505050509080600901549080600a018054600181600116156101000203166002900480601f016020809104026020016040519081016040528092919081815260200182805460018160011615610100020316600290048015611d0d5780601f10611ce257610100808354040283529160200191611d0d565b820191906000526020600020905b815481529060010190602001808311611cf057829003601f168201915b505050505090508b565b611d28611d22612681565b83612742565b611d67576040517f08c379a0000000000000000000000000000000000000000000000000000000008152600401611d5e906156c6565b60405180910390fd5b611d73848484846131fd565b50505050565b6000601a60008373ffffffffffffffffffffffffffffffffffffffff1673ffffffffffffffffffffffffffffffffffffffff168152602001908152602001600020805490509050919050565b6060611dd082612664565b611e0f576040517f08c379a0000000000000000000000000000000000000000000000000000000008152600401611e0690615666565b60405180910390fd5b6060600860008481526020019081526020016000208054600181600116156101000203166002900480601f016020809104026020016040519081016040528092919081815260200182805460018160011615610100020316600290048015611eb85780601f10611e8d57610100808354040283529160200191611eb8565b820191906000526020600020905b815481529060010190602001808311611e9b57829003601f168201915b505050505090506060611ec9610ede565b9050600081511415611edf578192505050611f43565b600082511115611f14578082604051602001611efc9291906150a4565b60405160208183030381529060405292505050611f43565b80611f1e85613259565b604051602001611f2f9291906150a4565b604051602081830303815290604052925050505b919050565b6000600560008473ffffffffffffffffffffffffffffffffffffffff1673ffffffffffffffffffffffffffffffffffffffff16815260200190815260200160002060008373ffffffffffffffffffffffffffffffffffffffff1673ffffffffffffffffffffffffffffffffffffffff16815260200190815260200160002060009054906101000a900460ff16905092915050565b611fe63083610b40565b611ff1333084610d17565b60405180608001604052803373ffffffffffffffffffffffffffffffffffffffff1681526020018381526020018281526020016001815250601c600084815260200190815260200160002060008201518160000160006101000a81548173ffffffffffffffffffffffffffffffffffffffff021916908373ffffffffffffffffffffffffffffffffffffffff1602179055506020820151816001015560408201518160020155606082015181600301559050506001601b60008282540192505081905550601d8290806001815401808255809150506001900390600052602060002001600090919091909150557f8a406a31ea51029cdc77d7bd9d0adfbf19a179d9436caa56e1814a57c6964c746001601b54036001604051612115929190615785565b60405180910390a15050565b612129612681565b73ffffffffffffffffffffffffffffffffffffffff166121476111b8565b73ffffffffffffffffffffffffffffffffffffffff161461219d576040517f08c379a000000000000000000000000000000000000000000000000000000000815260040161219490615626565b60405180910390fd5b600073ffffffffffffffffffffffffffffffffffffffff168173ffffffffffffffffffffffffffffffffffffffff16141561220d576040517f08c379a000000000000000000000000000000000000000000000000000000000815260040161220490615446565b60405180910390fd5b8073ffffffffffffffffffffffffffffffffffffffff16600d60009054906101000a900473ffffffffffffffffffffffffffffffffffffffff1673ffffffffffffffffffffffffffffffffffffffff167f8be0079c531659141344cd1fd0a4f28419497f9722a3daafe3b4186f6b6457e060405160405180910390a380600d60006101000a81548173ffffffffffffffffffffffffffffffffffffffff021916908373ffffffffffffffffffffffffffffffffffffffff16021790555050565b6122d5613f3a565b6122de826125b7565b90506001816060015114612327576040517f08c379a000000000000000000000000000000000000000000000000000000000815260040161231e90615466565b60405180910390fd5b60008160000151905060008260400151905080341461237b576040517f08c379a000000000000000000000000000000000000000000000000000000000815260040161237290615706565b60405180910390fd5b8173ffffffffffffffffffffffffffffffffffffffff166108fc829081150290604051600060405180830381858888f193505050501580156123c1573d6000803e3d6000fd5b5060003390506123d18186610b40565b6123dc308287610d17565b60006123e7866125b7565b60600181815250507f8a406a31ea51029cdc77d7bd9d0adfbf19a179d9436caa56e1814a57c6964c7485600060405161242192919061575c565b60405180910390a1600080600090505b601a6000876000015173ffffffffffffffffffffffffffffffffffffffff1673ffffffffffffffffffffffffffffffffffffffff168152602001908152602001600020805490508110156124f8578560200151601a6000886000015173ffffffffffffffffffffffffffffffffffffffff1673ffffffffffffffffffffffffffffffffffffffff16815260200190815260200160002082815481106124d257fe5b906000526020600020015414156124eb578091506124f8565b8080600101915050612431565b50612545601a6000876000015173ffffffffffffffffffffffffffffffffffffffff1673ffffffffffffffffffffffffffffffffffffffff16815260200190815260200160002082613389565b601a60008373ffffffffffffffffffffffffffffffffffffffff1673ffffffffffffffffffffffffffffffffffffffff16815260200190815260200160002085602001519080600181540180825580915050600190039060005260206000200160009091909190915055505050505050565b6125bf613f3a565b6125c7613f3a565b601c60008481526020019081526020016000206040518060800160405290816000820160009054906101000a900473ffffffffffffffffffffffffffffffffffffffff1673ffffffffffffffffffffffffffffffffffffffff1673ffffffffffffffffffffffffffffffffffffffff1681526020016001820154815260200160028201548152602001600382015481525050905080915050919050565b600061267a8260026133e590919063ffffffff16565b9050919050565b600033905090565b816004600083815260200190815260200160002060006101000a81548173ffffffffffffffffffffffffffffffffffffffff021916908373ffffffffffffffffffffffffffffffffffffffff160217905550808273ffffffffffffffffffffffffffffffffffffffff166126fc83610ea7565b73ffffffffffffffffffffffffffffffffffffffff167f8c5be1e5ebec7d5bd14f71427d1e84f3dd0314c0f7b2291e5b200ac8c7c3b92560405160405180910390a45050565b600061274d82612664565b61278c576040517f08c379a000000000000000000000000000000000000000000000000000000000815260040161278390615546565b60405180910390fd5b600061279783610ea7565b90508073ffffffffffffffffffffffffffffffffffffffff168473ffffffffffffffffffffffffffffffffffffffff16148061280657508373ffffffffffffffffffffffffffffffffffffffff166127ee84610abb565b73ffffffffffffffffffffffffffffffffffffffff16145b8061281757506128168185611f48565b5b91505092915050565b61282982612664565b612868576040517f08c379a000000000000000000000000000000000000000000000000000000000815260040161285f90615606565b60405180910390fd5b8060086000848152602001908152602001600020908051906020019061288f929190613e60565b505050565b60006128a2826000016133ff565b9050919050565b8273ffffffffffffffffffffffffffffffffffffffff166128c982610ea7565b73ffffffffffffffffffffffffffffffffffffffff161461291f576040517f08c379a000000000000000000000000000000000000000000000000000000000815260040161291690615646565b60405180910390fd5b600073ffffffffffffffffffffffffffffffffffffffff168273ffffffffffffffffffffffffffffffffffffffff16141561298f576040517f08c379a0000000000000000000000000000000000000000000000000000000008152600401612986906154c6565b60405180910390fd5b61299a838383613410565b6129a5600082612689565b6129f681600160008673ffffffffffffffffffffffffffffffffffffffff1673ffffffffffffffffffffffffffffffffffffffff16815260200190815260200160002061341590919063ffffffff16565b50612a4881600160008573ffffffffffffffffffffffffffffffffffffffff1673ffffffffffffffffffffffffffffffffffffffff16815260200190815260200160002061342f90919063ffffffff16565b50612a5f818360026134499092919063ffffffff16565b50808273ffffffffffffffffffffffffffffffffffffffff168473ffffffffffffffffffffffffffffffffffffffff167fddf252ad1be2c89b69c2b068fc378daa952ba7f163c4a11628f55a4df523b3ef60405160405180910390a4505050565b6000612acf836000018361347e565b60001c905092915050565b600080600080612aed86600001866134eb565b915091508160001c8160001c8090509350935050509250929050565b6000612b1c846000018460001b8461356e565b60001c90509392505050565b6000612b36826000016135ff565b9050919050565b60006013805490509050600060016127108481612b5657fe5b060190506000605a60a08581612b6857fe5b060190506000600a601e8681612b7a57fe5b060190506000604b606e8781612b8c57fe5b060190506000603660508881612b9e57fe5b0601905060006052606e8981612bb057fe5b060190506000600160648a81612bc257fe5b0681612bca57fe5b0490506013604051806101600160405280601560008e81526020019081526020016000208054600181600116156101000203166002900480601f016020809104026020016040519081016040528092919081815260200182805460018160011615610100020316600290048015612c825780601f10612c5757610100808354040283529160200191612c82565b820191906000526020600020905b815481529060010190602001808311612c6557829003601f168201915b50505050508152602001601660008e81526020019081526020016000208054600181600116156101000203166002900480601f016020809104026020016040519081016040528092919081815260200182805460018160011615610100020316600290048015612d335780601f10612d0857610100808354040283529160200191612d33565b820191906000526020600020905b815481529060010190602001808311612d1657829003601f168201915b50505050508152602001898152602001888152602001878152602001868152602001858152602001848152602001601760008e81526020019081526020016000208054600181600116156101000203166002900480601f016020809104026020016040519081016040528092919081815260200182805460018160011615610100020316600290048015612e085780601f10612ddd57610100808354040283529160200191612e08565b820191906000526020600020905b815481529060010190602001808311612deb57829003601f168201915b50505050508152602001838152602001601860008e81526020019081526020016000208054600181600116156101000203166002900480601f016020809104026020016040519081016040528092919081815260200182805460018160011615610100020316600290048015612ebf5780601f10612e9457610100808354040283529160200191612ebf565b820191906000526020600020905b815481529060010190602001808311612ea257829003601f168201915b505050505081525090806001815401808255809150506001900390600052602060002090600b02016000909190919091506000820151816000019080519060200190612f0c929190613f78565b506020820151816001019080519060200190612f29929190613f78565b5060408201518160020155606082015181600301556080820151816004015560a0820151816005015560c0820151816006015560e08201518160070155610100820151816008019080519060200190612f83929190613f78565b50610120820151816009015561014082015181600a019080519060200190612fac929190613f78565b505050612fec601960008c815260200190815260200160002060009054906101000a900473ffffffffffffffffffffffffffffffffffffffff1689613610565b601a6000601960008d815260200190815260200160002060009054906101000a900473ffffffffffffffffffffffffffffffffffffffff1673ffffffffffffffffffffffffffffffffffffffff1673ffffffffffffffffffffffffffffffffffffffff16815260200190815260200160002088908060018154018082558091505060019003906000526020600020016000909190919091505550505050505050505050565b6000600a60009054906101000a900473ffffffffffffffffffffffffffffffffffffffff1673ffffffffffffffffffffffffffffffffffffffff16634000aea0600b60009054906101000a900473ffffffffffffffffffffffffffffffffffffffff168587866040516020016131089291906151e8565b6040516020818303038152906040526040518463ffffffff1660e01b81526004016131359392919061512f565b602060405180830381600087803b15801561314f57600080fd5b505af1158015613163573d6000803e3d6000fd5b505050506040513d601f19601f820116820180604052506131879190810190614314565b5060006131a9858430600c60008a81526020019081526020016000205461362e565b90506131d26001600c60008881526020019081526020016000205461366a90919063ffffffff16565b600c6000878152602001908152602001600020819055506131f385826136bf565b9150509392505050565b6132088484846128a9565b613214848484846136f2565b613253576040517f08c379a000000000000000000000000000000000000000000000000000000000815260040161324a90615426565b60405180910390fd5b50505050565b606060008214156132a1576040518060400160405280600181526020017f30000000000000000000000000000000000000000000000000000000000000008152509050613384565b600082905060005b600082146132cb578080600101915050600a82816132c357fe5b0491506132a9565b6060816040519080825280601f01601f1916602001820160405280156133005781602001600182028038833980820191505090505b50905060006001830390508593505b6000841461337c57600a848161332157fe5b0660300160f81b8282806001900393508151811061333b57fe5b60200101907effffffffffffffffffffffffffffffffffffffffffffffffffffffffffffff1916908160001a905350600a848161337457fe5b04935061330f565b819450505050505b919050565b8160018380549050038154811061339c57fe5b90600052602060002001548282815481106133b357fe5b9060005260206000200181905550818054806133cb57fe5b600190038181906000526020600020016000905590555050565b60006133f7836000018360001b613856565b905092915050565b600081600001805490509050919050565b505050565b6000613427836000018360001b613879565b905092915050565b6000613441836000018360001b613961565b905092915050565b6000613475846000018460001b8473ffffffffffffffffffffffffffffffffffffffff1660001b6139d1565b90509392505050565b6000818360000180549050116134c9576040517f08c379a00000000000000000000000000000000000000000000000000000000081526004016134c090615406565b60405180910390fd5b8260000182815481106134d857fe5b9060005260206000200154905092915050565b60008082846000018054905011613537576040517f08c379a000000000000000000000000000000000000000000000000000000000815260040161352e906155a6565b60405180910390fd5b600084600001848154811061354857fe5b906000526020600020906002020190508060000154816001015492509250509250929050565b600080846001016000858152602001908152602001600020549050600081141583906135d0576040517f08c379a00000000000000000000000000000000000000000000000000000000081526004016135c79190615256565b60405180910390fd5b508460000160018203815481106135e357fe5b9060005260206000209060020201600101549150509392505050565b600081600001805490509050919050565b61362a828260405180602001604052806000815250613aad565b5050565b6000848484846040516020016136479493929190615211565b6040516020818303038152906040528051906020012060001c9050949350505050565b6000808284019050838110156136b5576040517f08c379a00000000000000000000000000000000000000000000000000000000081526004016136ac906154a6565b60405180910390fd5b8091505092915050565b600082826040516020016136d4929190615061565b60405160208183030381529060405280519060200120905092915050565b60006137138473ffffffffffffffffffffffffffffffffffffffff16613b08565b613720576001905061384e565b60606137e763150b7a0260e01b613735612681565b88878760405160240161374b94939291906150e3565b604051602081830303815290604052907bffffffffffffffffffffffffffffffffffffffffffffffffffffffff19166020820180517bffffffffffffffffffffffffffffffffffffffffffffffffffffffff8381831617835250505050604051806060016040528060328152602001615a1b603291398773ffffffffffffffffffffffffffffffffffffffff16613b1b9092919063ffffffff16565b90506000818060200190516137ff91908101906143a2565b905063150b7a0260e01b7bffffffffffffffffffffffffffffffffffffffffffffffffffffffff1916817bffffffffffffffffffffffffffffffffffffffffffffffffffffffff191614925050505b949350505050565b600080836001016000848152602001908152602001600020541415905092915050565b6000808360010160008481526020019081526020016000205490506000811461395557600060018203905060006001866000018054905003905060008660000182815481106138c457fe5b90600052602060002001549050808760000184815481106138e157fe5b906000526020600020018190555060018301876001016000838152602001908152602001600020819055508660000180548061391957fe5b6001900381819060005260206000200160009055905586600101600087815260200190815260200160002060009055600194505050505061395b565b60009150505b92915050565b600061396d8383613b33565b6139c65782600001829080600181540180825580915050600190039060005260206000200160009091909190915055826000018054905083600101600084815260200190815260200160002081905550600190506139cb565b600090505b92915050565b6000808460010160008581526020019081526020016000205490506000811415613a7857846000016040518060400160405280868152602001858152509080600181540180825580915050600190039060005260206000209060020201600090919091909150600082015181600001556020820151816001015550508460000180549050856001016000868152602001908152602001600020819055506001915050613aa6565b82856000016001830381548110613a8b57fe5b90600052602060002090600202016001018190555060009150505b9392505050565b613ab78383613b56565b613ac460008484846136f2565b613b03576040517f08c379a0000000000000000000000000000000000000000000000000000000008152600401613afa90615426565b60405180910390fd5b505050565b600080823b905060008111915050919050565b6060613b2a8484600085613ce4565b90509392505050565b600080836001016000848152602001908152602001600020541415905092915050565b600073ffffffffffffffffffffffffffffffffffffffff168273ffffffffffffffffffffffffffffffffffffffff161415613bc6576040517f08c379a0000000000000000000000000000000000000000000000000000000008152600401613bbd906155c6565b60405180910390fd5b613bcf81612664565b15613c0f576040517f08c379a0000000000000000000000000000000000000000000000000000000008152600401613c0690615486565b60405180910390fd5b613c1b60008383613410565b613c6c81600160008573ffffffffffffffffffffffffffffffffffffffff1673ffffffffffffffffffffffffffffffffffffffff16815260200190815260200160002061342f90919063ffffffff16565b50613c83818360026134499092919063ffffffff16565b50808273ffffffffffffffffffffffffffffffffffffffff16600073ffffffffffffffffffffffffffffffffffffffff167fddf252ad1be2c89b69c2b068fc378daa952ba7f163c4a11628f55a4df523b3ef60405160405180910390a45050565b606082471015613d29576040517f08c379a0000000000000000000000000000000000000000000000000000000008152600401613d2090615526565b60405180910390fd5b613d3285613b08565b613d71576040517f08c379a0000000000000000000000000000000000000000000000000000000008152600401613d68906156e6565b60405180910390fd5b600060608673ffffffffffffffffffffffffffffffffffffffff168587604051613d9b919061508d565b60006040518083038185875af1925050503d8060008114613dd8576040519150601f19603f3d011682016040523d82523d6000602084013e613ddd565b606091505b5091509150613ded828286613df9565b92505050949350505050565b60608315613e0957829050613e59565b600083511115613e1c5782518084602001fd5b816040517f08c379a0000000000000000000000000000000000000000000000000000000008152600401613e509190615256565b60405180910390fd5b9392505050565b828054600181600116156101000203166002900490600052602060002090601f016020900481019282601f10613ea157805160ff1916838001178555613ecf565b82800160010185558215613ecf579182015b82811115613ece578251825591602001919060010190613eb3565b5b509050613edc9190613ff8565b5090565b60405180610160016040528060608152602001606081526020016000815260200160008152602001600081526020016000815260200160008152602001600081526020016060815260200160008152602001606081525090565b6040518060800160405280600073ffffffffffffffffffffffffffffffffffffffff1681526020016000815260200160008152602001600081525090565b828054600181600116156101000203166002900490600052602060002090601f016020900481019282601f10613fb957805160ff1916838001178555613fe7565b82800160010185558215613fe7579182015b82811115613fe6578251825591602001919060010190613fcb565b5b509050613ff49190613ff8565b5090565b61401a91905b80821115614016576000816000905550600101613ffe565b5090565b90565b60008135905061402c816159a7565b92915050565b600081359050614041816159be565b92915050565b600081519050614056816159be565b92915050565b60008135905061406b816159d5565b92915050565b600081359050614080816159ec565b92915050565b600081519050614095816159ec565b92915050565b600082601f8301126140ac57600080fd5b81356140bf6140ba826157db565b6157ae565b915080825260208301602083018583830111156140db57600080fd5b6140e6838284615940565b50505092915050565b600082601f83011261410057600080fd5b813561411361410e82615807565b6157ae565b9150808252602083016020830185838301111561412f57600080fd5b61413a838284615940565b50505092915050565b60008135905061415281615a03565b92915050565b60008151905061416781615a03565b92915050565b60006020828403121561417f57600080fd5b600061418d8482850161401d565b91505092915050565b600080604083850312156141a957600080fd5b60006141b78582860161401d565b92505060206141c88582860161401d565b9150509250929050565b6000806000606084860312156141e757600080fd5b60006141f58682870161401d565b93505060206142068682870161401d565b925050604061421786828701614143565b9150509250925092565b6000806000806080858703121561423757600080fd5b60006142458782880161401d565b94505060206142568782880161401d565b935050604061426787828801614143565b925050606085013567ffffffffffffffff81111561428457600080fd5b6142908782880161409b565b91505092959194509250565b600080604083850312156142af57600080fd5b60006142bd8582860161401d565b92505060206142ce85828601614032565b9150509250929050565b600080604083850312156142eb57600080fd5b60006142f98582860161401d565b925050602061430a85828601614143565b9150509250929050565b60006020828403121561432657600080fd5b600061433484828501614047565b91505092915050565b6000806040838503121561435057600080fd5b600061435e8582860161405c565b925050602061436f85828601614143565b9150509250929050565b60006020828403121561438b57600080fd5b600061439984828501614071565b91505092915050565b6000602082840312156143b457600080fd5b60006143c284828501614086565b91505092915050565b6000602082840312156143dd57600080fd5b60006143eb84828501614143565b91505092915050565b60006020828403121561440657600080fd5b600061441484828501614158565b91505092915050565b6000806040838503121561443057600080fd5b600061443e85828601614143565b925050602083013567ffffffffffffffff81111561445b57600080fd5b614467858286016140ef565b9150509250929050565b600080600080600060a0868803121561448957600080fd5b600061449788828901614143565b955050602086013567ffffffffffffffff8111156144b457600080fd5b6144c0888289016140ef565b945050604086013567ffffffffffffffff8111156144dd57600080fd5b6144e9888289016140ef565b935050606086013567ffffffffffffffff81111561450657600080fd5b614512888289016140ef565b925050608086013567ffffffffffffffff81111561452f57600080fd5b61453b888289016140ef565b9150509295509295909350565b6000806040838503121561455b57600080fd5b600061456985828601614143565b925050602061457a85828601614143565b9150509250929050565b61458d8161589e565b82525050565b61459c8161588c565b82525050565b6145ab8161588c565b82525050565b6145ba816158b0565b82525050565b6145c9816158bc565b82525050565b6145e06145db826158bc565b615982565b82525050565b60006145f182615833565b6145fb8185615854565b935061460b81856020860161594f565b61461481615996565b840191505092915050565b600061462a82615833565b6146348185615865565b935061464481856020860161594f565b80840191505092915050565b6146598161591c565b82525050565b6146688161592e565b82525050565b600061467982615849565b6146838185615870565b935061469381856020860161594f565b61469c81615996565b840191505092915050565b60006146b282615849565b6146bc8185615881565b93506146cc81856020860161594f565b80840191505092915050565b60006146e38261583e565b6146ed8185615870565b93506146fd81856020860161594f565b61470681615996565b840191505092915050565b600061471e602283615870565b91507f456e756d657261626c655365743a20696e646578206f7574206f6620626f756e60008301527f64730000000000000000000000000000000000000000000000000000000000006020830152604082019050919050565b6000614784603283615870565b91507f4552433732313a207472616e7366657220746f206e6f6e20455243373231526560008301527f63656976657220696d706c656d656e74657200000000000000000000000000006020830152604082019050919050565b60006147ea602683615870565b91507f4f776e61626c653a206e6577206f776e657220697320746865207a65726f206160008301527f64647265737300000000000000000000000000000000000000000000000000006020830152604082019050919050565b6000614850601283615870565b91507f5472616465206973206e6f74204f70656e2e00000000000000000000000000006000830152602082019050919050565b6000614890601c83615870565b91507f4552433732313a20746f6b656e20616c7265616479206d696e746564000000006000830152602082019050919050565b60006148d0601b83615870565b91507f536166654d6174683a206164646974696f6e206f766572666c6f7700000000006000830152602082019050919050565b6000614910602483615870565b91507f4552433732313a207472616e7366657220746f20746865207a65726f2061646460008301527f72657373000000000000000000000000000000000000000000000000000000006020830152604082019050919050565b6000614976601983615870565b91507f4552433732313a20617070726f766520746f2063616c6c6572000000000000006000830152602082019050919050565b60006149b6602b83615870565b91507f4e6f7420656e6f756768204c494e4b202d2066696c6c20636f6e74726163742060008301527f77697468206661756365740000000000000000000000000000000000000000006020830152604082019050919050565b6000614a1c602683615870565b91507f416464726573733a20696e73756666696369656e742062616c616e636520666f60008301527f722063616c6c00000000000000000000000000000000000000000000000000006020830152604082019050919050565b6000614a82602c83615870565b91507f4552433732313a206f70657261746f7220717565727920666f72206e6f6e657860008301527f697374656e7420746f6b656e00000000000000000000000000000000000000006020830152604082019050919050565b6000614ae8603883615870565b91507f4552433732313a20617070726f76652063616c6c6572206973206e6f74206f7760008301527f6e6572206e6f7220617070726f76656420666f7220616c6c00000000000000006020830152604082019050919050565b6000614b4e602a83615870565b91507f4552433732313a2062616c616e636520717565727920666f7220746865207a6560008301527f726f2061646472657373000000000000000000000000000000000000000000006020830152604082019050919050565b6000614bb4602283615870565b91507f456e756d657261626c654d61703a20696e646578206f7574206f6620626f756e60008301527f64730000000000000000000000000000000000000000000000000000000000006020830152604082019050919050565b6000614c1a602083615870565b91507f4552433732313a206d696e7420746f20746865207a65726f20616464726573736000830152602082019050919050565b6000614c5a602c83615870565b91507f4552433732313a20617070726f76656420717565727920666f72206e6f6e657860008301527f697374656e7420746f6b656e00000000000000000000000000000000000000006020830152604082019050919050565b6000614cc0602c83615870565b91507f4552433732314d657461646174613a2055524920736574206f66206e6f6e657860008301527f697374656e7420746f6b656e00000000000000000000000000000000000000006020830152604082019050919050565b6000614d26602083615870565b91507f4f776e61626c653a2063616c6c6572206973206e6f7420746865206f776e65726000830152602082019050919050565b6000614d66602983615870565b91507f4552433732313a207472616e73666572206f6620746f6b656e2074686174206960008301527f73206e6f74206f776e00000000000000000000000000000000000000000000006020830152604082019050919050565b6000614dcc602f83615870565b91507f4552433732314d657461646174613a2055524920717565727920666f72206e6f60008301527f6e6578697374656e7420746f6b656e00000000000000000000000000000000006020830152604082019050919050565b6000614e32601f83615870565b91507f4f6e6c7920565246436f6f7264696e61746f722063616e2066756c66696c6c006000830152602082019050919050565b6000614e72602183615870565b91507f4552433732313a20617070726f76616c20746f2063757272656e74206f776e6560008301527f72000000000000000000000000000000000000000000000000000000000000006020830152604082019050919050565b6000614ed8603183615870565b91507f4552433732313a207472616e736665722063616c6c6572206973206e6f74206f60008301527f776e6572206e6f7220617070726f7665640000000000000000000000000000006020830152604082019050919050565b6000614f3e601d83615870565b91507f416464726573733a2063616c6c20746f206e6f6e2d636f6e74726163740000006000830152602082019050919050565b6000614f7e602a83615870565b91507f6d73672e76616c75652073686f756c6420626520657175616c20746f2074686560008301527f20627579416d6f756e74000000000000000000000000000000000000000000006020830152604082019050919050565b608082016000820151614fed6000850182614593565b506020820151615000602085018261502c565b506040820151615013604085018261502c565b506060820151615026606085018261502c565b50505050565b61503581615912565b82525050565b61504481615912565b82525050565b61505b61505682615912565b61598c565b82525050565b600061506d82856145cf565b60208201915061507d828461504a565b6020820191508190509392505050565b6000615099828461461f565b915081905092915050565b60006150b082856146a7565b91506150bc82846146a7565b91508190509392505050565b60006020820190506150dd60008301846145a2565b92915050565b60006080820190506150f86000830187614584565b61510560208301866145a2565b615112604083018561503b565b818103606083015261512481846145e6565b905095945050505050565b600060608201905061514460008301866145a2565b615151602083018561503b565b818103604083015261516381846145e6565b9050949350505050565b600060808201905061518260008301876145a2565b61518f602083018661503b565b61519c604083018561503b565b6151a9606083018461503b565b95945050505050565b60006020820190506151c760008301846145b1565b92915050565b60006020820190506151e260008301846145c0565b92915050565b60006040820190506151fd60008301856145c0565b61520a602083018461503b565b9392505050565b600060808201905061522660008301876145c0565b615233602083018661503b565b61524060408301856145a2565b61524d606083018461503b565b95945050505050565b60006020820190508181036000830152615270818461466e565b905092915050565b6000610160820190508181036000830152615293818e61466e565b905081810360208301526152a7818d61466e565b905081810360408301526152bb818c61466e565b905081810360608301526152cf818b61466e565b90506152de608083018a61503b565b6152eb60a083018961503b565b6152f860c083018861503b565b61530560e083018761503b565b61531361010083018661503b565b61532161012083018561503b565b61532f61014083018461503b565b9c9b505050505050505050505050565b600061016082019050818103600083015261535a818e6146d8565b9050818103602083015261536e818d6146d8565b905061537d604083018c61503b565b61538a606083018b61503b565b615397608083018a61503b565b6153a460a083018961503b565b6153b160c083018861503b565b6153be60e083018761503b565b8181036101008301526153d181866146d8565b90506153e161012083018561503b565b8181036101408301526153f481846146d8565b90509c9b505050505050505050505050565b6000602082019050818103600083015261541f81614711565b9050919050565b6000602082019050818103600083015261543f81614777565b9050919050565b6000602082019050818103600083015261545f816147dd565b9050919050565b6000602082019050818103600083015261547f81614843565b9050919050565b6000602082019050818103600083015261549f81614883565b9050919050565b600060208201905081810360008301526154bf816148c3565b9050919050565b600060208201905081810360008301526154df81614903565b9050919050565b600060208201905081810360008301526154ff81614969565b9050919050565b6000602082019050818103600083015261551f816149a9565b9050919050565b6000602082019050818103600083015261553f81614a0f565b9050919050565b6000602082019050818103600083015261555f81614a75565b9050919050565b6000602082019050818103600083015261557f81614adb565b9050919050565b6000602082019050818103600083015261559f81614b41565b9050919050565b600060208201905081810360008301526155bf81614ba7565b9050919050565b600060208201905081810360008301526155df81614c0d565b9050919050565b600060208201905081810360008301526155ff81614c4d565b9050919050565b6000602082019050818103600083015261561f81614cb3565b9050919050565b6000602082019050818103600083015261563f81614d19565b9050919050565b6000602082019050818103600083015261565f81614d59565b9050919050565b6000602082019050818103600083015261567f81614dbf565b9050919050565b6000602082019050818103600083015261569f81614e25565b9050919050565b600060208201905081810360008301526156bf81614e65565b9050919050565b600060208201905081810360008301526156df81614ecb565b9050919050565b600060208201905081810360008301526156ff81614f31565b9050919050565b6000602082019050818103600083015261571f81614f71565b9050919050565b600060808201905061573b6000830184614fd7565b92915050565b6000602082019050615756600083018461503b565b92915050565b6000604082019050615771600083018561503b565b61577e6020830184614650565b9392505050565b600060408201905061579a600083018561503b565b6157a7602083018461465f565b9392505050565b6000604051905081810181811067ffffffffffffffff821117156157d157600080fd5b8060405250919050565b600067ffffffffffffffff8211156157f257600080fd5b601f19601f8301169050602081019050919050565b600067ffffffffffffffff82111561581e57600080fd5b601f19601f8301169050602081019050919050565b600081519050919050565b600081519050919050565b600081519050919050565b600082825260208201905092915050565b600081905092915050565b600082825260208201905092915050565b600081905092915050565b6000615897826158f2565b9050919050565b60006158a9826158f2565b9050919050565b60008115159050919050565b6000819050919050565b60007fffffffff0000000000000000000000000000000000000000000000000000000082169050919050565b600073ffffffffffffffffffffffffffffffffffffffff82169050919050565b6000819050919050565b600061592782615912565b9050919050565b600061593982615912565b9050919050565b82818337600083830152505050565b60005b8381101561596d578082015181840152602081019050615952565b8381111561597c576000848401525b50505050565b6000819050919050565b6000819050919050565b6000601f19601f8301169050919050565b6159b08161588c565b81146159bb57600080fd5b50565b6159c7816158b0565b81146159d257600080fd5b50565b6159de816158bc565b81146159e957600080fd5b50565b6159f5816158c6565b8114615a0057600080fd5b50565b615a0c81615912565b8114615a1757600080fd5b5056fe4552433732313a207472616e7366657220746f206e6f6e20455243373231526563656976657220696d706c656d656e7465724552433732313a206f776e657220717565727920666f72206e6f6e6578697374656e7420746f6b656ea26469706673582212202235261c1b2949e94e36f9170402c7cdd59a2aeedb255f833dd17f43266cfe2c64736f6c63430006020033",
  "linkReferences": {},
  "deployedLinkReferences": {}
}