{
  "_format": "hh-sol-artifact-1",
  "contractName": "CreateWaifu",
  "sourceName": "contracts/CreateWaifu.sol",
  "abi": [
    {
      "inputs": [
        {
          "internalType": "address",
          "name": "_VRFCoordinator",
          "type": "address"
        },
        {
          "internalType": "address",
          "name": "_LinkToken",
          "type": "address"
        },
        {
          "internalType": "bytes32",
          "name": "_keyhash",
          "type": "bytes32"
        }
      ],
      "stateMutability": "nonpayable",
      "type": "constructor"
    },
    {
      "anonymous": false,
      "inputs": [
        {
          "indexed": true,
          "internalType": "address",
          "name": "owner",
          "type": "address"
        },
        {
          "indexed": true,
          "internalType": "address",
          "name": "approved",
          "type": "address"
        },
        {
          "indexed": true,
          "internalType": "uint256",
          "name": "tokenId",
          "type": "uint256"
        }
      ],
      "name": "Approval",
      "type": "event"
    },
    {
      "anonymous": false,
      "inputs": [
        {
          "indexed": true,
          "internalType": "address",
          "name": "owner",
          "type": "address"
        },
        {
          "indexed": true,
          "internalType": "address",
          "name": "operator",
          "type": "address"
        },
        {
          "indexed": false,
          "internalType": "bool",
          "name": "approved",
          "type": "bool"
        }
      ],
      "name": "ApprovalForAll",
      "type": "event"
    },
    {
      "anonymous": false,
      "inputs": [
        {
          "indexed": true,
          "internalType": "address",
          "name": "previousOwner",
          "type": "address"
        },
        {
          "indexed": true,
          "internalType": "address",
          "name": "newOwner",
          "type": "address"
        }
      ],
      "name": "OwnershipTransferred",
      "type": "event"
    },
    {
      "anonymous": false,
      "inputs": [
        {
          "indexed": false,
          "internalType": "uint256",
          "name": "ad",
          "type": "uint256"
        },
        {
          "indexed": false,
          "internalType": "bytes32",
          "name": "status",
          "type": "bytes32"
        }
      ],
      "name": "TradeStatusChange",
      "type": "event"
    },
    {
      "anonymous": false,
      "inputs": [
        {
          "indexed": true,
          "internalType": "address",
          "name": "from",
          "type": "address"
        },
        {
          "indexed": true,
          "internalType": "address",
          "name": "to",
          "type": "address"
        },
        {
          "indexed": true,
          "internalType": "uint256",
          "name": "tokenId",
          "type": "uint256"
        }
      ],
      "name": "Transfer",
      "type": "event"
    },
    {
      "inputs": [],
      "name": "LinkToken",
      "outputs": [
        {
          "internalType": "address",
          "name": "",
          "type": "address"
        }
      ],
      "stateMutability": "view",
      "type": "function"
    },
    {
      "inputs": [],
      "name": "VRFCoordinator",
      "outputs": [
        {
          "internalType": "address",
          "name": "",
          "type": "address"
        }
      ],
      "stateMutability": "view",
      "type": "function"
    },
    {
      "inputs": [
        {
          "internalType": "address",
          "name": "to",
          "type": "address"
        },
        {
          "internalType": "uint256",
          "name": "tokenId",
          "type": "uint256"
        }
      ],
      "name": "approve",
      "outputs": [],
      "stateMutability": "nonpayable",
      "type": "function"
    },
    {
      "inputs": [
        {
          "internalType": "address",
          "name": "owner",
          "type": "address"
        }
      ],
      "name": "balanceOf",
      "outputs": [
        {
          "internalType": "uint256",
          "name": "",
          "type": "uint256"
        }
      ],
      "stateMutability": "view",
      "type": "function"
    },
    {
      "inputs": [],
      "name": "baseURI",
      "outputs": [
        {
          "internalType": "string",
          "name": "",
          "type": "string"
        }
      ],
      "stateMutability": "view",
      "type": "function"
    },
    {
      "inputs": [
        {
          "internalType": "uint256",
          "name": "_tokenId",
          "type": "uint256"
        }
      ],
      "name": "buyWaifu",
      "outputs": [],
      "stateMutability": "payable",
      "type": "function"
    },
    {
      "inputs": [
        {
          "internalType": "uint256",
          "name": "",
          "type": "uint256"
        }
      ],
      "name": "forAuction",
      "outputs": [
        {
          "internalType": "uint256",
          "name": "",
          "type": "uint256"
        }
      ],
      "stateMutability": "view",
      "type": "function"
    },
    {
      "inputs": [
        {
          "internalType": "uint256",
          "name": "tokenId",
          "type": "uint256"
        }
      ],
      "name": "getApproved",
      "outputs": [
        {
          "internalType": "address",
          "name": "",
          "type": "address"
        }
      ],
      "stateMutability": "view",
      "type": "function"
    },
    {
      "inputs": [
        {
          "internalType": "uint256",
          "name": "_tokenId",
          "type": "uint256"
        }
      ],
      "name": "getAuctionTrade",
      "outputs": [
        {
          "components": [
            {
              "internalType": "address",
              "name": "seller",
              "type": "address"
            },
            {
              "internalType": "uint256",
              "name": "tokenId",
              "type": "uint256"
            },
            {
              "internalType": "uint256",
              "name": "price",
              "type": "uint256"
            },
            {
              "internalType": "bytes32",
              "name": "status",
              "type": "bytes32"
            }
          ],
          "internalType": "struct CreateWaifu.auctionTrade",
          "name": "trade_",
          "type": "tuple"
        }
      ],
      "stateMutability": "view",
      "type": "function"
    },
    {
      "inputs": [],
      "name": "getNumberOfWaifus",
      "outputs": [
        {
          "internalType": "uint256",
          "name": "",
          "type": "uint256"
        }
      ],
      "stateMutability": "view",
      "type": "function"
    },
    {
      "inputs": [],
      "name": "getTokenIdOfWaifus",
      "outputs": [
        {
          "internalType": "uint256[]",
          "name": "",
          "type": "uint256[]"
        }
      ],
      "stateMutability": "view",
      "type": "function"
    },
    {
      "inputs": [
        {
          "internalType": "uint256",
          "name": "tokenId",
          "type": "uint256"
        }
      ],
      "name": "getTokenURI",
      "outputs": [
        {
          "internalType": "string",
          "name": "",
          "type": "string"
        }
      ],
      "stateMutability": "view",
      "type": "function"
    },
    {
      "inputs": [
        {
          "internalType": "uint256",
          "name": "tokenId",
          "type": "uint256"
        }
      ],
      "name": "getWaifuStats",
      "outputs": [
        {
          "internalType": "string",
          "name": "",
          "type": "string"
        },
        {
          "internalType": "string",
          "name": "",
          "type": "string"
        },
        {
          "internalType": "string",
          "name": "",
          "type": "string"
        },
        {
          "internalType": "string",
          "name": "",
          "type": "string"
        },
        {
          "internalType": "uint256",
          "name": "",
          "type": "uint256"
        },
        {
          "internalType": "uint256",
          "name": "",
          "type": "uint256"
        },
        {
          "internalType": "uint256",
          "name": "",
          "type": "uint256"
        },
        {
          "internalType": "uint256",
          "name": "",
          "type": "uint256"
        },
        {
          "internalType": "uint256",
          "name": "",
          "type": "uint256"
        },
        {
          "internalType": "uint256",
          "name": "",
          "type": "uint256"
        },
        {
          "internalType": "uint256",
          "name": "",
          "type": "uint256"
        }
      ],
      "stateMutability": "view",
      "type": "function"
    },
    {
      "inputs": [
        {
          "internalType": "uint256",
          "name": "",
          "type": "uint256"
        }
      ],
      "name": "hostedAuctions",
      "outputs": [
        {
          "internalType": "address",
          "name": "",
          "type": "address"
        }
      ],
      "stateMutability": "view",
      "type": "function"
    },
    {
      "inputs": [
        {
          "internalType": "address",
          "name": "owner",
          "type": "address"
        },
        {
          "internalType": "address",
          "name": "operator",
          "type": "address"
        }
      ],
      "name": "isApprovedForAll",
      "outputs": [
        {
          "internalType": "bool",
          "name": "",
          "type": "bool"
        }
      ],
      "stateMutability": "view",
      "type": "function"
    },
    {
      "inputs": [],
      "name": "name",
      "outputs": [
        {
          "internalType": "string",
          "name": "",
          "type": "string"
        }
      ],
      "stateMutability": "view",
      "type": "function"
    },
    {
      "inputs": [],
      "name": "owner",
      "outputs": [
        {
          "internalType": "address",
          "name": "",
          "type": "address"
        }
      ],
      "stateMutability": "view",
      "type": "function"
    },
    {
      "inputs": [
        {
          "internalType": "uint256",
          "name": "tokenId",
          "type": "uint256"
        }
      ],
      "name": "ownerOf",
      "outputs": [
        {
          "internalType": "address",
          "name": "",
          "type": "address"
        }
      ],
      "stateMutability": "view",
      "type": "function"
    },
    {
      "inputs": [
        {
          "internalType": "uint256",
          "name": "_tokenId",
          "type": "uint256"
        },
        {
          "internalType": "uint256",
          "name": "_price",
          "type": "uint256"
        }
      ],
      "name": "putForAuction",
      "outputs": [],
      "stateMutability": "nonpayable",
      "type": "function"
    },
    {
      "inputs": [],
      "name": "randomResult",
      "outputs": [
        {
          "internalType": "uint256",
          "name": "",
          "type": "uint256"
        }
      ],
      "stateMutability": "view",
      "type": "function"
    },
    {
      "inputs": [
        {
          "internalType": "bytes32",
          "name": "requestId",
          "type": "bytes32"
        },
        {
          "internalType": "uint256",
          "name": "randomness",
          "type": "uint256"
        }
      ],
      "name": "rawFulfillRandomness",
      "outputs": [],
      "stateMutability": "nonpayable",
      "type": "function"
    },
    {
      "inputs": [],
      "name": "renounceOwnership",
      "outputs": [],
      "stateMutability": "nonpayable",
      "type": "function"
    },
    {
      "inputs": [
        {
          "internalType": "uint256",
          "name": "userProvidedSeed",
          "type": "uint256"
        },
        {
          "internalType": "string",
          "name": "name",
          "type": "string"
        },
        {
          "internalType": "string",
          "name": "origin",
          "type": "string"
        },
        {
          "internalType": "string",
          "name": "description",
          "type": "string"
        },
        {
          "internalType": "string",
          "name": "waifuLink",
          "type": "string"
        }
      ],
      "name": "requestNewRandomWaifu",
      "outputs": [
        {
          "internalType": "bytes32",
          "name": "",
          "type": "bytes32"
        }
      ],
      "stateMutability": "nonpayable",
      "type": "function"
    },
    {
      "inputs": [
        {
          "internalType": "address",
          "name": "from",
          "type": "address"
        },
        {
          "internalType": "address",
          "name": "to",
          "type": "address"
        },
        {
          "internalType": "uint256",
          "name": "tokenId",
          "type": "uint256"
        }
      ],
      "name": "safeTransferFrom",
      "outputs": [],
      "stateMutability": "nonpayable",
      "type": "function"
    },
    {
      "inputs": [
        {
          "internalType": "address",
          "name": "from",
          "type": "address"
        },
        {
          "internalType": "address",
          "name": "to",
          "type": "address"
        },
        {
          "internalType": "uint256",
          "name": "tokenId",
          "type": "uint256"
        },
        {
          "internalType": "bytes",
          "name": "_data",
          "type": "bytes"
        }
      ],
      "name": "safeTransferFrom",
      "outputs": [],
      "stateMutability": "nonpayable",
      "type": "function"
    },
    {
      "inputs": [
        {
          "internalType": "address",
          "name": "",
          "type": "address"
        },
        {
          "internalType": "uint256",
          "name": "",
          "type": "uint256"
        }
      ],
      "name": "senderToTokenId",
      "outputs": [
        {
          "internalType": "uint256",
          "name": "",
          "type": "uint256"
        }
      ],
      "stateMutability": "view",
      "type": "function"
    },
    {
      "inputs": [
        {
          "internalType": "address",
          "name": "operator",
          "type": "address"
        },
        {
          "internalType": "bool",
          "name": "approved",
          "type": "bool"
        }
      ],
      "name": "setApprovalForAll",
      "outputs": [],
      "stateMutability": "nonpayable",
      "type": "function"
    },
    {
      "inputs": [
        {
          "internalType": "uint256",
          "name": "tokenId",
          "type": "uint256"
        },
        {
          "internalType": "string",
          "name": "_tokenURI",
          "type": "string"
        }
      ],
      "name": "setTokenURI",
      "outputs": [],
      "stateMutability": "nonpayable",
      "type": "function"
    },
    {
      "inputs": [
        {
          "internalType": "bytes4",
          "name": "interfaceId",
          "type": "bytes4"
        }
      ],
      "name": "supportsInterface",
      "outputs": [
        {
          "internalType": "bool",
          "name": "",
          "type": "bool"
        }
      ],
      "stateMutability": "view",
      "type": "function"
    },
    {
      "inputs": [],
      "name": "symbol",
      "outputs": [
        {
          "internalType": "string",
          "name": "",
          "type": "string"
        }
      ],
      "stateMutability": "view",
      "type": "function"
    },
    {
      "inputs": [
        {
          "internalType": "uint256",
          "name": "index",
          "type": "uint256"
        }
      ],
      "name": "tokenByIndex",
      "outputs": [
        {
          "internalType": "uint256",
          "name": "",
          "type": "uint256"
        }
      ],
      "stateMutability": "view",
      "type": "function"
    },
    {
      "inputs": [
        {
          "internalType": "address",
          "name": "owner",
          "type": "address"
        },
        {
          "internalType": "uint256",
          "name": "index",
          "type": "uint256"
        }
      ],
      "name": "tokenOfOwnerByIndex",
      "outputs": [
        {
          "internalType": "uint256",
          "name": "",
          "type": "uint256"
        }
      ],
      "stateMutability": "view",
      "type": "function"
    },
    {
      "inputs": [
        {
          "internalType": "uint256",
          "name": "tokenId",
          "type": "uint256"
        }
      ],
      "name": "tokenURI",
      "outputs": [
        {
          "internalType": "string",
          "name": "",
          "type": "string"
        }
      ],
      "stateMutability": "view",
      "type": "function"
    },
    {
      "inputs": [],
      "name": "totalSupply",
      "outputs": [
        {
          "internalType": "uint256",
          "name": "",
          "type": "uint256"
        }
      ],
      "stateMutability": "view",
      "type": "function"
    },
    {
      "inputs": [
        {
          "internalType": "uint256",
          "name": "",
          "type": "uint256"
        }
      ],
      "name": "trades",
      "outputs": [
        {
          "internalType": "address",
          "name": "seller",
          "type": "address"
        },
        {
          "internalType": "uint256",
          "name": "tokenId",
          "type": "uint256"
        },
        {
          "internalType": "uint256",
          "name": "price",
          "type": "uint256"
        },
        {
          "internalType": "bytes32",
          "name": "status",
          "type": "bytes32"
        }
      ],
      "stateMutability": "view",
      "type": "function"
    },
    {
      "inputs": [
        {
          "internalType": "address",
          "name": "from",
          "type": "address"
        },
        {
          "internalType": "address",
          "name": "to",
          "type": "address"
        },
        {
          "internalType": "uint256",
          "name": "tokenId",
          "type": "uint256"
        }
      ],
      "name": "transferFrom",
      "outputs": [],
      "stateMutability": "nonpayable",
      "type": "function"
    },
    {
      "inputs": [
        {
          "internalType": "address",
          "name": "newOwner",
          "type": "address"
        }
      ],
      "name": "transferOwnership",
      "outputs": [],
      "stateMutability": "nonpayable",
      "type": "function"
    },
    {
      "inputs": [
        {
          "internalType": "uint256",
          "name": "",
          "type": "uint256"
        }
      ],
      "name": "waifus",
      "outputs": [
        {
          "internalType": "string",
          "name": "name",
          "type": "string"
        },
        {
          "internalType": "string",
          "name": "origin",
          "type": "string"
        },
        {
          "internalType": "uint256",
          "name": "age",
          "type": "uint256"
        },
        {
          "internalType": "uint256",
          "name": "height",
          "type": "uint256"
        },
        {
          "internalType": "uint256",
          "name": "weight",
          "type": "uint256"
        },
        {
          "internalType": "uint256",
          "name": "bust",
          "type": "uint256"
        },
        {
          "internalType": "uint256",
          "name": "waist",
          "type": "uint256"
        },
        {
          "internalType": "uint256",
          "name": "hip",
          "type": "uint256"
        },
        {
          "internalType": "string",
          "name": "description",
          "type": "string"
        },
        {
          "internalType": "uint256",
          "name": "rating",
          "type": "uint256"
        },
        {
          "internalType": "string",
          "name": "waifuLink",
          "type": "string"
        }
      ],
      "stateMutability": "view",
      "type": "function"
    }
  ],
  "bytecode": "0x60806040523480156200001157600080fd5b5060405162006214380380620062148339818101604052620000379190810190620004d2565b82826040518060400160405280600b81526020017f43726561746557616966750000000000000000000000000000000000000000008152506040518060400160405280600381526020017f5746550000000000000000000000000000000000000000000000000000000000815250620000bd6301ffc9a760e01b6200031560201b60201c565b8160069080519060200190620000d5929190620003f5565b508060079080519060200190620000ee929190620003f5565b50620001076380ac58cd60e01b6200031560201b60201c565b6200011f635b5e139f60e01b6200031560201b60201c565b6200013763780e9d6360e01b6200031560201b60201c565b505081600b60006101000a81548173ffffffffffffffffffffffffffffffffffffffff021916908373ffffffffffffffffffffffffffffffffffffffff16021790555080600a60006101000a81548173ffffffffffffffffffffffffffffffffffffffff021916908373ffffffffffffffffffffffffffffffffffffffff16021790555050506000620001cf620003ed60201b60201c565b905080600d60006101000a81548173ffffffffffffffffffffffffffffffffffffffff021916908373ffffffffffffffffffffffffffffffffffffffff1602179055508073ffffffffffffffffffffffffffffffffffffffff16600073ffffffffffffffffffffffffffffffffffffffff167f8be0079c531659141344cd1fd0a4f28419497f9722a3daafe3b4186f6b6457e060405160405180910390a35082601160006101000a81548173ffffffffffffffffffffffffffffffffffffffff021916908373ffffffffffffffffffffffffffffffffffffffff16021790555081601260006101000a81548173ffffffffffffffffffffffffffffffffffffffff021916908373ffffffffffffffffffffffffffffffffffffffff16021790555080600e81905550655af3107a4000600f819055506000601b819055505050506200060f565b63ffffffff60e01b817bffffffffffffffffffffffffffffffffffffffffffffffffffffffff1916141562000381576040517f08c379a000000000000000000000000000000000000000000000000000000000815260040162000378906200056a565b60405180910390fd5b6001600080837bffffffffffffffffffffffffffffffffffffffffffffffffffffffff19167bffffffffffffffffffffffffffffffffffffffffffffffffffffffff1916815260200190815260200160002060006101000a81548160ff02191690831515021790555050565b600033905090565b828054600181600116156101000203166002900490600052602060002090601f016020900481019282601f106200043857805160ff191683800117855562000469565b8280016001018555821562000469579182015b82811115620004685782518255916020019190600101906200044b565b5b5090506200047891906200047c565b5090565b620004a191905b808211156200049d57600081600090555060010162000483565b5090565b90565b600081519050620004b581620005db565b92915050565b600081519050620004cc81620005f5565b92915050565b600080600060608486031215620004e857600080fd5b6000620004f886828701620004a4565b93505060206200050b86828701620004a4565b92505060406200051e86828701620004bb565b9150509250925092565b600062000537601c836200058c565b91507f4552433136353a20696e76616c696420696e74657266616365206964000000006000830152602082019050919050565b60006020820190508181036000830152620005858162000528565b9050919050565b600082825260208201905092915050565b6000620005aa82620005bb565b9050919050565b6000819050919050565b600073ffffffffffffffffffffffffffffffffffffffff82169050919050565b620005e6816200059d565b8114620005f257600080fd5b50565b6200060081620005b1565b81146200060c57600080fd5b50565b615bf5806200061f6000396000f3fe6080604052600436106102255760003560e01c80636d25e3fe11610123578063a5cb1c41116100ab578063f17b0a651161006f578063f17b0a65146108ca578063f2fde38b146108f3578063fcaefb191461091c578063fd3582cc14610938578063fe8fd6be1461097557610225565b8063a5cb1c4114610799578063b809a6ed146107e0578063b88d4fde14610827578063c87b56dd14610850578063e985e9c51461088d57610225565b806393049fef116100f257806393049fef146106a257806394985ddd146106df57806395d89b4114610708578063a22cb46514610733578063a4693b921461075c57610225565b80636d25e3fe146105e657806370a0823114610623578063715018a6146106605780638da5cb5b1461067757610225565b806333b60863116101b15780634f6ccce7116101755780634f6ccce7146104d95780634f8e2fdf146105165780635ce58372146105415780636352211e1461057e5780636c0360eb146105bb57610225565b806333b60863146103f257806339ab4dac1461041d5780633bb3a24d1461044857806342619f661461048557806342842e0e146104b057610225565b8063162094c4116101f8578063162094c4146102f857806318160ddd146103215780631e6c598e1461034c57806323b872dd1461038c5780632f745c59146103b557610225565b806301ffc9a71461022a57806306fdde0314610267578063081812fc14610292578063095ea7b3146102cf575b600080fd5b34801561023657600080fd5b50610251600480360361024c91908101906143dd565b6109a0565b60405161025e91906152eb565b60405180910390f35b34801561027357600080fd5b5061027c610a07565b604051610289919061538f565b60405180910390f35b34801561029e57600080fd5b506102b960048036036102b4919081019061442f565b610aa9565b6040516102c691906151df565b60405180910390f35b3480156102db57600080fd5b506102f660048036036102f1919081019061433c565b610b2e565b005b34801561030457600080fd5b5061031f600480360361031a9190810190614481565b610c46565b005b34801561032d57600080fd5b50610336610ca4565b604051610343919061587a565b60405180910390f35b34801561035857600080fd5b50610373600480360361036e919081019061442f565b610cb5565b6040516103839493929190615284565b60405180910390f35b34801561039857600080fd5b506103b360048036036103ae9190810190614236565b610d05565b005b3480156103c157600080fd5b506103dc60048036036103d7919081019061433c565b610d65565b6040516103e9919061587a565b60405180910390f35b3480156103fe57600080fd5b50610407610dc0565b60405161041491906151df565b60405180910390f35b34801561042957600080fd5b50610432610de6565b60405161043f919061587a565b60405180910390f35b34801561045457600080fd5b5061046f600480360361046a919081019061442f565b610df3565b60405161047c919061538f565b60405180910390f35b34801561049157600080fd5b5061049a610e05565b6040516104a7919061587a565b60405180910390f35b3480156104bc57600080fd5b506104d760048036036104d29190810190614236565b610e0b565b005b3480156104e557600080fd5b5061050060048036036104fb919081019061442f565b610e2b565b60405161050d919061587a565b60405180910390f35b34801561052257600080fd5b5061052b610e4e565b60405161053891906151df565b60405180910390f35b34801561054d57600080fd5b506105686004803603610563919081019061442f565b610e74565b604051610575919061587a565b60405180910390f35b34801561058a57600080fd5b506105a560048036036105a0919081019061442f565b610e95565b6040516105b291906151df565b60405180910390f35b3480156105c757600080fd5b506105d0610ecc565b6040516105dd919061538f565b60405180910390f35b3480156105f257600080fd5b5061060d6004803603610608919081019061442f565b610f6e565b60405161061a91906151df565b60405180910390f35b34801561062f57600080fd5b5061064a600480360361064591908101906141d1565b610faa565b604051610657919061587a565b60405180910390f35b34801561066c57600080fd5b50610675611069565b005b34801561068357600080fd5b5061068c6111a6565b60405161069991906151df565b60405180910390f35b3480156106ae57600080fd5b506106c960048036036106c4919081019061433c565b6111d0565b6040516106d6919061587a565b60405180910390f35b3480156106eb57600080fd5b50610706600480360361070191908101906143a1565b6111fe565b005b34801561071457600080fd5b5061071d61129c565b60405161072a919061538f565b60405180910390f35b34801561073f57600080fd5b5061075a60048036036107559190810190614300565b61133e565b005b34801561076857600080fd5b50610783600480360361077e91908101906144d5565b6114bf565b6040516107909190615306565b60405180910390f35b3480156107a557600080fd5b506107c060048036036107bb919081019061442f565b6116c2565b6040516107d79b9a999897969594939291906153b1565b60405180910390f35b3480156107ec57600080fd5b506108076004803603610802919081019061442f565b611a3e565b60405161081e9b9a99989796959493929190615478565b60405180910390f35b34801561083357600080fd5b5061084e60048036036108499190810190614285565b611d05565b005b34801561085c57600080fd5b506108776004803603610872919081019061442f565b611d67565b604051610884919061538f565b60405180910390f35b34801561089957600080fd5b506108b460048036036108af91908101906141fa565b611eea565b6040516108c191906152eb565b60405180910390f35b3480156108d657600080fd5b506108f160048036036108ec91908101906145ac565b611f7e565b005b3480156108ff57600080fd5b5061091a600480360361091591908101906141d1565b6120d5565b005b6109366004803603610931919081019061442f565b612281565b005b34801561094457600080fd5b5061095f600480360361095a919081019061442f565b6125a6565b60405161096c919061585f565b60405180910390f35b34801561098157600080fd5b5061098a612653565b60405161099791906152c9565b60405180910390f35b6000806000837bffffffffffffffffffffffffffffffffffffffffffffffffffffffff19167bffffffffffffffffffffffffffffffffffffffffffffffffffffffff1916815260200190815260200160002060009054906101000a900460ff169050919050565b606060068054600181600116156101000203166002900480601f016020809104026020016040519081016040528092919081815260200182805460018160011615610100020316600290048015610a9f5780601f10610a7457610100808354040283529160200191610a9f565b820191906000526020600020905b815481529060010190602001808311610a8257829003601f168201915b5050505050905090565b6000610ab4826126e8565b610af3576040517f08c379a0000000000000000000000000000000000000000000000000000000008152600401610aea9061571f565b60405180910390fd5b6004600083815260200190815260200160002060009054906101000a900473ffffffffffffffffffffffffffffffffffffffff169050919050565b6000610b3982610e95565b90508073ffffffffffffffffffffffffffffffffffffffff168373ffffffffffffffffffffffffffffffffffffffff161415610baa576040517f08c379a0000000000000000000000000000000000000000000000000000000008152600401610ba1906157df565b60405180910390fd5b8073ffffffffffffffffffffffffffffffffffffffff16610bc9612705565b73ffffffffffffffffffffffffffffffffffffffff161480610bf85750610bf781610bf2612705565b611eea565b5b610c37576040517f08c379a0000000000000000000000000000000000000000000000000000000008152600401610c2e9061569f565b60405180910390fd5b610c41838361270d565b505050565b610c57610c51612705565b836127c6565b610c96576040517f08c379a0000000000000000000000000000000000000000000000000000000008152600401610c8d906157ff565b60405180910390fd5b610ca082826128a4565b5050565b6000610cb06002612918565b905090565b601c6020528060005260406000206000915090508060000160009054906101000a900473ffffffffffffffffffffffffffffffffffffffff16908060010154908060020154908060030154905084565b610d16610d10612705565b826127c6565b610d55576040517f08c379a0000000000000000000000000000000000000000000000000000000008152600401610d4c906157ff565b60405180910390fd5b610d6083838361292d565b505050565b6000610db882600160008673ffffffffffffffffffffffffffffffffffffffff1673ffffffffffffffffffffffffffffffffffffffff168152602001908152602001600020612b4490919063ffffffff16565b905092915050565b601160009054906101000a900473ffffffffffffffffffffffffffffffffffffffff1681565b6000601380549050905090565b6060610dfe82611d67565b9050919050565b60105481565b610e2683838360405180602001604052806000815250611d05565b505050565b600080610e42836002612b5e90919063ffffffff16565b50905080915050919050565b601260009054906101000a900473ffffffffffffffffffffffffffffffffffffffff1681565b601d8181548110610e8157fe5b906000526020600020016000915090505481565b6000610ec582604051806060016040528060298152602001615b97602991396002612b8d9092919063ffffffff16565b9050919050565b606060098054600181600116156101000203166002900480601f016020809104026020016040519081016040528092919081815260200182805460018160011615610100020316600290048015610f645780601f10610f3957610100808354040283529160200191610f64565b820191906000526020600020905b815481529060010190602001808311610f4757829003601f168201915b5050505050905090565b60148181548110610f7b57fe5b906000526020600020016000915054906101000a900473ffffffffffffffffffffffffffffffffffffffff1681565b60008073ffffffffffffffffffffffffffffffffffffffff168273ffffffffffffffffffffffffffffffffffffffff16141561101b576040517f08c379a0000000000000000000000000000000000000000000000000000000008152600401611012906156bf565b60405180910390fd5b611062600160008473ffffffffffffffffffffffffffffffffffffffff1673ffffffffffffffffffffffffffffffffffffffff168152602001908152602001600020612bac565b9050919050565b611071612705565b73ffffffffffffffffffffffffffffffffffffffff1661108f6111a6565b73ffffffffffffffffffffffffffffffffffffffff16146110e5576040517f08c379a00000000000000000000000000000000000000000000000000000000081526004016110dc9061575f565b60405180910390fd5b600073ffffffffffffffffffffffffffffffffffffffff16600d60009054906101000a900473ffffffffffffffffffffffffffffffffffffffff1673ffffffffffffffffffffffffffffffffffffffff167f8be0079c531659141344cd1fd0a4f28419497f9722a3daafe3b4186f6b6457e060405160405180910390a36000600d60006101000a81548173ffffffffffffffffffffffffffffffffffffffff021916908373ffffffffffffffffffffffffffffffffffffffff160217905550565b6000600d60009054906101000a900473ffffffffffffffffffffffffffffffffffffffff16905090565b601a60205281600052604060002081815481106111e957fe5b90600052602060002001600091509150505481565b600b60009054906101000a900473ffffffffffffffffffffffffffffffffffffffff1673ffffffffffffffffffffffffffffffffffffffff163373ffffffffffffffffffffffffffffffffffffffff161461128e576040517f08c379a0000000000000000000000000000000000000000000000000000000008152600401611285906157bf565b60405180910390fd5b6112988282612bc1565b5050565b606060078054600181600116156101000203166002900480601f0160208091040260200160405190810160405280929190818152602001828054600181600116156101000203166002900480156113345780601f1061130957610100808354040283529160200191611334565b820191906000526020600020905b81548152906001019060200180831161131757829003601f168201915b5050505050905090565b611346612705565b73ffffffffffffffffffffffffffffffffffffffff168273ffffffffffffffffffffffffffffffffffffffff1614156113b4576040517f08c379a00000000000000000000000000000000000000000000000000000000081526004016113ab9061561f565b60405180910390fd5b80600560006113c1612705565b73ffffffffffffffffffffffffffffffffffffffff1673ffffffffffffffffffffffffffffffffffffffff16815260200190815260200160002060008473ffffffffffffffffffffffffffffffffffffffff1673ffffffffffffffffffffffffffffffffffffffff16815260200190815260200160002060006101000a81548160ff0219169083151502179055508173ffffffffffffffffffffffffffffffffffffffff1661146e612705565b73ffffffffffffffffffffffffffffffffffffffff167f17307eab39ab6107e8899845ad3d59bd9653f200f220920489ca2b5937696c31836040516114b391906152eb565b60405180910390a35050565b6000600f54600a60009054906101000a900473ffffffffffffffffffffffffffffffffffffffff1673ffffffffffffffffffffffffffffffffffffffff166370a08231306040518263ffffffff1660e01b815260040161151f91906151df565b60206040518083038186803b15801561153757600080fd5b505afa15801561154b573d6000803e3d6000fd5b505050506040513d601f19601f8201168201806040525061156f9190810190614458565b10156115b0576040517f08c379a00000000000000000000000000000000000000000000000000000000081526004016115a79061563f565b60405180910390fd5b60006115c1600e54600f54896130e2565b9050856015600083815260200190815260200160002090805190602001906115ea929190613ec1565b5084601660008381526020019081526020016000209080519060200190611612929190613ec1565b508360176000838152602001908152602001600020908051906020019061163a929190613ec1565b5082601860008381526020019081526020016000209080519060200190611662929190613ec1565b50336019600083815260200190815260200160002060006101000a81548173ffffffffffffffffffffffffffffffffffffffff021916908373ffffffffffffffffffffffffffffffffffffffff1602179055508091505095945050505050565b60608060608060008060008060008060006116db613f41565b60138d815481106116e857fe5b90600052602060002090600b020160405180610160016040529081600082018054600181600116156101000203166002900480601f01602080910402602001604051908101604052809291908181526020018280546001816001161561010002031660029004801561179b5780601f106117705761010080835404028352916020019161179b565b820191906000526020600020905b81548152906001019060200180831161177e57829003601f168201915b50505050508152602001600182018054600181600116156101000203166002900480601f01602080910402602001604051908101604052809291908181526020018280546001816001161561010002031660029004801561183d5780601f106118125761010080835404028352916020019161183d565b820191906000526020600020905b81548152906001019060200180831161182057829003601f168201915b50505050508152602001600282015481526020016003820154815260200160048201548152602001600582015481526020016006820154815260200160078201548152602001600882018054600181600116156101000203166002900480601f01602080910402602001604051908101604052809291908181526020018280546001816001161561010002031660029004801561191b5780601f106118f05761010080835404028352916020019161191b565b820191906000526020600020905b8154815290600101906020018083116118fe57829003601f168201915b5050505050815260200160098201548152602001600a82018054600181600116156101000203166002900480601f0160208091040260200160405190810160405280929190818152602001828054600181600116156101000203166002900480156119c75780601f1061199c576101008083540402835291602001916119c7565b820191906000526020600020905b8154815290600101906020018083116119aa57829003601f168201915b5050505050815250509050806000015181602001518261010001518361014001518460400151856060015186608001518760a001518860c001518960e001518a61012001518a9a508999508898508797509b509b509b509b509b509b509b509b509b509b509b505091939597999b90929496989a50565b60138181548110611a4b57fe5b90600052602060002090600b0201600091509050806000018054600181600116156101000203166002900480601f016020809104026020016040519081016040528092919081815260200182805460018160011615610100020316600290048015611af75780601f10611acc57610100808354040283529160200191611af7565b820191906000526020600020905b815481529060010190602001808311611ada57829003601f168201915b505050505090806001018054600181600116156101000203166002900480601f016020809104026020016040519081016040528092919081815260200182805460018160011615610100020316600290048015611b955780601f10611b6a57610100808354040283529160200191611b95565b820191906000526020600020905b815481529060010190602001808311611b7857829003601f168201915b505050505090806002015490806003015490806004015490806005015490806006015490806007015490806008018054600181600116156101000203166002900480601f016020809104026020016040519081016040528092919081815260200182805460018160011615610100020316600290048015611c575780601f10611c2c57610100808354040283529160200191611c57565b820191906000526020600020905b815481529060010190602001808311611c3a57829003601f168201915b50505050509080600901549080600a018054600181600116156101000203166002900480601f016020809104026020016040519081016040528092919081815260200182805460018160011615610100020316600290048015611cfb5780601f10611cd057610100808354040283529160200191611cfb565b820191906000526020600020905b815481529060010190602001808311611cde57829003601f168201915b505050505090508b565b611d16611d10612705565b836127c6565b611d55576040517f08c379a0000000000000000000000000000000000000000000000000000000008152600401611d4c906157ff565b60405180910390fd5b611d618484848461324e565b50505050565b6060611d72826126e8565b611db1576040517f08c379a0000000000000000000000000000000000000000000000000000000008152600401611da89061579f565b60405180910390fd5b6060600860008481526020019081526020016000208054600181600116156101000203166002900480601f016020809104026020016040519081016040528092919081815260200182805460018160011615610100020316600290048015611e5a5780601f10611e2f57610100808354040283529160200191611e5a565b820191906000526020600020905b815481529060010190602001808311611e3d57829003601f168201915b505050505090506060611e6b610ecc565b9050600081511415611e81578192505050611ee5565b600082511115611eb6578082604051602001611e9e9291906151bb565b60405160208183030381529060405292505050611ee5565b80611ec0856132aa565b604051602001611ed19291906151bb565b604051602081830303815290604052925050505b919050565b6000600560008473ffffffffffffffffffffffffffffffffffffffff1673ffffffffffffffffffffffffffffffffffffffff16815260200190815260200160002060008373ffffffffffffffffffffffffffffffffffffffff1673ffffffffffffffffffffffffffffffffffffffff16815260200190815260200160002060009054906101000a900460ff16905092915050565b611f893330846133da565b60405180608001604052803373ffffffffffffffffffffffffffffffffffffffff1681526020018381526020018281526020017f4f70656e00000000000000000000000000000000000000000000000000000000815250601c600084815260200190815260200160002060008201518160000160006101000a81548173ffffffffffffffffffffffffffffffffffffffff021916908373ffffffffffffffffffffffffffffffffffffffff1602179055506020820151816001015560408201518160020155606082015181600301559050506001601b60008282540192505081905550601d8290806001815401808255809150506001900390600052602060002001600090919091909150557f4d38ed2c5ea671a5ccddc331f0ebebd94a60aaf6e572543497485d4d148f9edf6001601b54036040516120c991906158bc565b60405180910390a15050565b6120dd612705565b73ffffffffffffffffffffffffffffffffffffffff166120fb6111a6565b73ffffffffffffffffffffffffffffffffffffffff1614612151576040517f08c379a00000000000000000000000000000000000000000000000000000000081526004016121489061575f565b60405180910390fd5b600073ffffffffffffffffffffffffffffffffffffffff168173ffffffffffffffffffffffffffffffffffffffff1614156121c1576040517f08c379a00000000000000000000000000000000000000000000000000000000081526004016121b89061557f565b60405180910390fd5b8073ffffffffffffffffffffffffffffffffffffffff16600d60009054906101000a900473ffffffffffffffffffffffffffffffffffffffff1673ffffffffffffffffffffffffffffffffffffffff167f8be0079c531659141344cd1fd0a4f28419497f9722a3daafe3b4186f6b6457e060405160405180910390a380600d60006101000a81548173ffffffffffffffffffffffffffffffffffffffff021916908373ffffffffffffffffffffffffffffffffffffffff16021790555050565b612289613f9b565b612292826125a6565b90507f4f70656e000000000000000000000000000000000000000000000000000000008160600151146122fa576040517f08c379a00000000000000000000000000000000000000000000000000000000081526004016122f19061559f565b60405180910390fd5b60008160000151905060008260400151905080341461234e576040517f08c379a00000000000000000000000000000000000000000000000000000000081526004016123459061583f565b60405180910390fd5b8173ffffffffffffffffffffffffffffffffffffffff166108fc829081150290604051600060405180830381858888f19350505050158015612394573d6000803e3d6000fd5b5060003390506123a48186610b2e565b6123af3082876133da565b7f45786563757465640000000000000000000000000000000000000000000000006123d9866125a6565b60600181815250507f4d38ed2c5ea671a5ccddc331f0ebebd94a60aaf6e572543497485d4d148f9edf856040516124109190615895565b60405180910390a1600080600090505b601a6000876000015173ffffffffffffffffffffffffffffffffffffffff1673ffffffffffffffffffffffffffffffffffffffff168152602001908152602001600020805490508110156124e7578560200151601a6000886000015173ffffffffffffffffffffffffffffffffffffffff1673ffffffffffffffffffffffffffffffffffffffff16815260200190815260200160002082815481106124c157fe5b906000526020600020015414156124da578091506124e7565b8080600101915050612420565b50612534601a6000876000015173ffffffffffffffffffffffffffffffffffffffff1673ffffffffffffffffffffffffffffffffffffffff168152602001908152602001600020826133ea565b601a60008373ffffffffffffffffffffffffffffffffffffffff1673ffffffffffffffffffffffffffffffffffffffff16815260200190815260200160002085602001519080600181540180825580915050600190039060005260206000200160009091909190915055505050505050565b6125ae613f9b565b6125b6613f9b565b601c60008481526020019081526020016000206040518060800160405290816000820160009054906101000a900473ffffffffffffffffffffffffffffffffffffffff1673ffffffffffffffffffffffffffffffffffffffff1673ffffffffffffffffffffffffffffffffffffffff1681526020016001820154815260200160028201548152602001600382015481525050905080915050919050565b6060601a60003373ffffffffffffffffffffffffffffffffffffffff1673ffffffffffffffffffffffffffffffffffffffff1681526020019081526020016000208054806020026020016040519081016040528092919081815260200182805480156126de57602002820191906000526020600020905b8154815260200190600101908083116126ca575b5050505050905090565b60006126fe82600261344690919063ffffffff16565b9050919050565b600033905090565b816004600083815260200190815260200160002060006101000a81548173ffffffffffffffffffffffffffffffffffffffff021916908373ffffffffffffffffffffffffffffffffffffffff160217905550808273ffffffffffffffffffffffffffffffffffffffff1661278083610e95565b73ffffffffffffffffffffffffffffffffffffffff167f8c5be1e5ebec7d5bd14f71427d1e84f3dd0314c0f7b2291e5b200ac8c7c3b92560405160405180910390a45050565b60006127d1826126e8565b612810576040517f08c379a00000000000000000000000000000000000000000000000000000000081526004016128079061567f565b60405180910390fd5b600061281b83610e95565b90508073ffffffffffffffffffffffffffffffffffffffff168473ffffffffffffffffffffffffffffffffffffffff16148061288a57508373ffffffffffffffffffffffffffffffffffffffff1661287284610aa9565b73ffffffffffffffffffffffffffffffffffffffff16145b8061289b575061289a8185611eea565b5b91505092915050565b6128ad826126e8565b6128ec576040517f08c379a00000000000000000000000000000000000000000000000000000000081526004016128e39061573f565b60405180910390fd5b80600860008481526020019081526020016000209080519060200190612913929190613ec1565b505050565b600061292682600001613460565b9050919050565b8273ffffffffffffffffffffffffffffffffffffffff1661294d82610e95565b73ffffffffffffffffffffffffffffffffffffffff16146129a3576040517f08c379a000000000000000000000000000000000000000000000000000000000815260040161299a9061577f565b60405180910390fd5b600073ffffffffffffffffffffffffffffffffffffffff168273ffffffffffffffffffffffffffffffffffffffff161415612a13576040517f08c379a0000000000000000000000000000000000000000000000000000000008152600401612a0a906155ff565b60405180910390fd5b612a1e838383613471565b612a2960008261270d565b612a7a81600160008673ffffffffffffffffffffffffffffffffffffffff1673ffffffffffffffffffffffffffffffffffffffff16815260200190815260200160002061347690919063ffffffff16565b50612acc81600160008573ffffffffffffffffffffffffffffffffffffffff1673ffffffffffffffffffffffffffffffffffffffff16815260200190815260200160002061349090919063ffffffff16565b50612ae3818360026134aa9092919063ffffffff16565b50808273ffffffffffffffffffffffffffffffffffffffff168473ffffffffffffffffffffffffffffffffffffffff167fddf252ad1be2c89b69c2b068fc378daa952ba7f163c4a11628f55a4df523b3ef60405160405180910390a4505050565b6000612b5383600001836134df565b60001c905092915050565b600080600080612b71866000018661354c565b915091508160001c8160001c8090509350935050509250929050565b6000612ba0846000018460001b846135cf565b60001c90509392505050565b6000612bba82600001613660565b9050919050565b60006013805490509050600060016127108481612bda57fe5b060190506000605a60a08581612bec57fe5b060190506000600a601e8681612bfe57fe5b060190506000604b606e8781612c1057fe5b060190506000603660508881612c2257fe5b0601905060006052606e8981612c3457fe5b060190506000600160648a81612c4657fe5b0681612c4e57fe5b0490506013604051806101600160405280601560008e81526020019081526020016000208054600181600116156101000203166002900480601f016020809104026020016040519081016040528092919081815260200182805460018160011615610100020316600290048015612d065780601f10612cdb57610100808354040283529160200191612d06565b820191906000526020600020905b815481529060010190602001808311612ce957829003601f168201915b50505050508152602001601660008e81526020019081526020016000208054600181600116156101000203166002900480601f016020809104026020016040519081016040528092919081815260200182805460018160011615610100020316600290048015612db75780601f10612d8c57610100808354040283529160200191612db7565b820191906000526020600020905b815481529060010190602001808311612d9a57829003601f168201915b50505050508152602001898152602001888152602001878152602001868152602001858152602001848152602001601760008e81526020019081526020016000208054600181600116156101000203166002900480601f016020809104026020016040519081016040528092919081815260200182805460018160011615610100020316600290048015612e8c5780601f10612e6157610100808354040283529160200191612e8c565b820191906000526020600020905b815481529060010190602001808311612e6f57829003601f168201915b50505050508152602001838152602001601860008e81526020019081526020016000208054600181600116156101000203166002900480601f016020809104026020016040519081016040528092919081815260200182805460018160011615610100020316600290048015612f435780601f10612f1857610100808354040283529160200191612f43565b820191906000526020600020905b815481529060010190602001808311612f2657829003601f168201915b505050505081525090806001815401808255809150506001900390600052602060002090600b02016000909190919091506000820151816000019080519060200190612f90929190613fdc565b506020820151816001019080519060200190612fad929190613fdc565b5060408201518160020155606082015181600301556080820151816004015560a0820151816005015560c0820151816006015560e08201518160070155610100820151816008019080519060200190613007929190613fdc565b50610120820151816009015561014082015181600a019080519060200190613030929190613fdc565b505050613070601960008c815260200190815260200160002060009054906101000a900473ffffffffffffffffffffffffffffffffffffffff1689613671565b601a60003373ffffffffffffffffffffffffffffffffffffffff1673ffffffffffffffffffffffffffffffffffffffff16815260200190815260200160002088908060018154018082558091505060019003906000526020600020016000909190919091505550505050505050505050565b6000600a60009054906101000a900473ffffffffffffffffffffffffffffffffffffffff1673ffffffffffffffffffffffffffffffffffffffff16634000aea0600b60009054906101000a900473ffffffffffffffffffffffffffffffffffffffff16858786604051602001613159929190615321565b6040516020818303038152906040526040518463ffffffff1660e01b815260040161318693929190615246565b602060405180830381600087803b1580156131a057600080fd5b505af11580156131b4573d6000803e3d6000fd5b505050506040513d601f19601f820116820180604052506131d89190810190614378565b5060006131fa858430600c60008a81526020019081526020016000205461368f565b90506132236001600c6000888152602001908152602001600020546136cb90919063ffffffff16565b600c6000878152602001908152602001600020819055506132448582613720565b9150509392505050565b61325984848461292d565b61326584848484613753565b6132a4576040517f08c379a000000000000000000000000000000000000000000000000000000000815260040161329b9061555f565b60405180910390fd5b50505050565b606060008214156132f2576040518060400160405280600181526020017f300000000000000000000000000000000000000000000000000000000000000081525090506133d5565b600082905060005b6000821461331c578080600101915050600a828161331457fe5b0491506132fa565b6060816040519080825280601f01601f1916602001820160405280156133515781602001600182028038833980820191505090505b50905060006001830390508593505b600084146133cd57600a848161337257fe5b0660300160f81b8282806001900393508151811061338c57fe5b60200101907effffffffffffffffffffffffffffffffffffffffffffffffffffffffffffff1916908160001a905350600a84816133c557fe5b049350613360565b819450505050505b919050565b6133e5838383610e0b565b505050565b816001838054905003815481106133fd57fe5b906000526020600020015482828154811061341457fe5b90600052602060002001819055508180548061342c57fe5b600190038181906000526020600020016000905590555050565b6000613458836000018360001b6138b7565b905092915050565b600081600001805490509050919050565b505050565b6000613488836000018360001b6138da565b905092915050565b60006134a2836000018360001b6139c2565b905092915050565b60006134d6846000018460001b8473ffffffffffffffffffffffffffffffffffffffff1660001b613a32565b90509392505050565b60008183600001805490501161352a576040517f08c379a00000000000000000000000000000000000000000000000000000000081526004016135219061553f565b60405180910390fd5b82600001828154811061353957fe5b9060005260206000200154905092915050565b60008082846000018054905011613598576040517f08c379a000000000000000000000000000000000000000000000000000000000815260040161358f906156df565b60405180910390fd5b60008460000184815481106135a957fe5b906000526020600020906002020190508060000154816001015492509250509250929050565b60008084600101600085815260200190815260200160002054905060008114158390613631576040517f08c379a0000000000000000000000000000000000000000000000000000000008152600401613628919061538f565b60405180910390fd5b5084600001600182038154811061364457fe5b9060005260206000209060020201600101549150509392505050565b600081600001805490509050919050565b61368b828260405180602001604052806000815250613b0e565b5050565b6000848484846040516020016136a8949392919061534a565b6040516020818303038152906040528051906020012060001c9050949350505050565b600080828401905083811015613716576040517f08c379a000000000000000000000000000000000000000000000000000000000815260040161370d906155df565b60405180910390fd5b8091505092915050565b60008282604051602001613735929190615178565b60405160208183030381529060405280519060200120905092915050565b60006137748473ffffffffffffffffffffffffffffffffffffffff16613b69565b61378157600190506138af565b606061384863150b7a0260e01b613796612705565b8887876040516024016137ac94939291906151fa565b604051602081830303815290604052907bffffffffffffffffffffffffffffffffffffffffffffffffffffffff19166020820180517bffffffffffffffffffffffffffffffffffffffffffffffffffffffff8381831617835250505050604051806060016040528060328152602001615b65603291398773ffffffffffffffffffffffffffffffffffffffff16613b7c9092919063ffffffff16565b90506000818060200190516138609190810190614406565b905063150b7a0260e01b7bffffffffffffffffffffffffffffffffffffffffffffffffffffffff1916817bffffffffffffffffffffffffffffffffffffffffffffffffffffffff191614925050505b949350505050565b600080836001016000848152602001908152602001600020541415905092915050565b600080836001016000848152602001908152602001600020549050600081146139b6576000600182039050600060018660000180549050039050600086600001828154811061392557fe5b906000526020600020015490508087600001848154811061394257fe5b906000526020600020018190555060018301876001016000838152602001908152602001600020819055508660000180548061397a57fe5b600190038181906000526020600020016000905590558660010160008781526020019081526020016000206000905560019450505050506139bc565b60009150505b92915050565b60006139ce8383613b94565b613a27578260000182908060018154018082558091505060019003906000526020600020016000909190919091505582600001805490508360010160008481526020019081526020016000208190555060019050613a2c565b600090505b92915050565b6000808460010160008581526020019081526020016000205490506000811415613ad957846000016040518060400160405280868152602001858152509080600181540180825580915050600190039060005260206000209060020201600090919091909150600082015181600001556020820151816001015550508460000180549050856001016000868152602001908152602001600020819055506001915050613b07565b82856000016001830381548110613aec57fe5b90600052602060002090600202016001018190555060009150505b9392505050565b613b188383613bb7565b613b256000848484613753565b613b64576040517f08c379a0000000000000000000000000000000000000000000000000000000008152600401613b5b9061555f565b60405180910390fd5b505050565b600080823b905060008111915050919050565b6060613b8b8484600085613d45565b90509392505050565b600080836001016000848152602001908152602001600020541415905092915050565b600073ffffffffffffffffffffffffffffffffffffffff168273ffffffffffffffffffffffffffffffffffffffff161415613c27576040517f08c379a0000000000000000000000000000000000000000000000000000000008152600401613c1e906156ff565b60405180910390fd5b613c30816126e8565b15613c70576040517f08c379a0000000000000000000000000000000000000000000000000000000008152600401613c67906155bf565b60405180910390fd5b613c7c60008383613471565b613ccd81600160008573ffffffffffffffffffffffffffffffffffffffff1673ffffffffffffffffffffffffffffffffffffffff16815260200190815260200160002061349090919063ffffffff16565b50613ce4818360026134aa9092919063ffffffff16565b50808273ffffffffffffffffffffffffffffffffffffffff16600073ffffffffffffffffffffffffffffffffffffffff167fddf252ad1be2c89b69c2b068fc378daa952ba7f163c4a11628f55a4df523b3ef60405160405180910390a45050565b606082471015613d8a576040517f08c379a0000000000000000000000000000000000000000000000000000000008152600401613d819061565f565b60405180910390fd5b613d9385613b69565b613dd2576040517f08c379a0000000000000000000000000000000000000000000000000000000008152600401613dc99061581f565b60405180910390fd5b600060608673ffffffffffffffffffffffffffffffffffffffff168587604051613dfc91906151a4565b60006040518083038185875af1925050503d8060008114613e39576040519150601f19603f3d011682016040523d82523d6000602084013e613e3e565b606091505b5091509150613e4e828286613e5a565b92505050949350505050565b60608315613e6a57829050613eba565b600083511115613e7d5782518084602001fd5b816040517f08c379a0000000000000000000000000000000000000000000000000000000008152600401613eb1919061538f565b60405180910390fd5b9392505050565b828054600181600116156101000203166002900490600052602060002090601f016020900481019282601f10613f0257805160ff1916838001178555613f30565b82800160010185558215613f30579182015b82811115613f2f578251825591602001919060010190613f14565b5b509050613f3d919061405c565b5090565b60405180610160016040528060608152602001606081526020016000815260200160008152602001600081526020016000815260200160008152602001600081526020016060815260200160008152602001606081525090565b6040518060800160405280600073ffffffffffffffffffffffffffffffffffffffff1681526020016000815260200160008152602001600080191681525090565b828054600181600116156101000203166002900490600052602060002090601f016020900481019282601f1061401d57805160ff191683800117855561404b565b8280016001018555821561404b579182015b8281111561404a57825182559160200191906001019061402f565b5b509050614058919061405c565b5090565b61407e91905b8082111561407a576000816000905550600101614062565b5090565b90565b60008135905061409081615af1565b92915050565b6000813590506140a581615b08565b92915050565b6000815190506140ba81615b08565b92915050565b6000813590506140cf81615b1f565b92915050565b6000813590506140e481615b36565b92915050565b6000815190506140f981615b36565b92915050565b600082601f83011261411057600080fd5b813561412361411e82615910565b6158e3565b9150808252602083016020830185838301111561413f57600080fd5b61414a838284615a8a565b50505092915050565b600082601f83011261416457600080fd5b81356141776141728261593c565b6158e3565b9150808252602083016020830185838301111561419357600080fd5b61419e838284615a8a565b50505092915050565b6000813590506141b681615b4d565b92915050565b6000815190506141cb81615b4d565b92915050565b6000602082840312156141e357600080fd5b60006141f184828501614081565b91505092915050565b6000806040838503121561420d57600080fd5b600061421b85828601614081565b925050602061422c85828601614081565b9150509250929050565b60008060006060848603121561424b57600080fd5b600061425986828701614081565b935050602061426a86828701614081565b925050604061427b868287016141a7565b9150509250925092565b6000806000806080858703121561429b57600080fd5b60006142a987828801614081565b94505060206142ba87828801614081565b93505060406142cb878288016141a7565b925050606085013567ffffffffffffffff8111156142e857600080fd5b6142f4878288016140ff565b91505092959194509250565b6000806040838503121561431357600080fd5b600061432185828601614081565b925050602061433285828601614096565b9150509250929050565b6000806040838503121561434f57600080fd5b600061435d85828601614081565b925050602061436e858286016141a7565b9150509250929050565b60006020828403121561438a57600080fd5b6000614398848285016140ab565b91505092915050565b600080604083850312156143b457600080fd5b60006143c2858286016140c0565b92505060206143d3858286016141a7565b9150509250929050565b6000602082840312156143ef57600080fd5b60006143fd848285016140d5565b91505092915050565b60006020828403121561441857600080fd5b6000614426848285016140ea565b91505092915050565b60006020828403121561444157600080fd5b600061444f848285016141a7565b91505092915050565b60006020828403121561446a57600080fd5b6000614478848285016141bc565b91505092915050565b6000806040838503121561449457600080fd5b60006144a2858286016141a7565b925050602083013567ffffffffffffffff8111156144bf57600080fd5b6144cb85828601614153565b9150509250929050565b600080600080600060a086880312156144ed57600080fd5b60006144fb888289016141a7565b955050602086013567ffffffffffffffff81111561451857600080fd5b61452488828901614153565b945050604086013567ffffffffffffffff81111561454157600080fd5b61454d88828901614153565b935050606086013567ffffffffffffffff81111561456a57600080fd5b61457688828901614153565b925050608086013567ffffffffffffffff81111561459357600080fd5b61459f88828901614153565b9150509295509295909350565b600080604083850312156145bf57600080fd5b60006145cd858286016141a7565b92505060206145de858286016141a7565b9150509250929050565b60006145f48383615143565b60208301905092915050565b61460981615a0c565b82525050565b614618816159fa565b82525050565b614627816159fa565b82525050565b600061463882615978565b61464281856159b1565b935061464d83615968565b8060005b8381101561467e57815161466588826145e8565b9750614670836159a4565b925050600181019050614651565b5085935050505092915050565b61469481615a1e565b82525050565b6146a381615a2a565b82525050565b6146b281615a2a565b82525050565b6146c96146c482615a2a565b615acc565b82525050565b60006146da82615983565b6146e481856159c2565b93506146f4818560208601615a99565b6146fd81615ae0565b840191505092915050565b600061471382615983565b61471d81856159d3565b935061472d818560208601615a99565b80840191505092915050565b600061474482615999565b61474e81856159de565b935061475e818560208601615a99565b61476781615ae0565b840191505092915050565b600061477d82615999565b61478781856159ef565b9350614797818560208601615a99565b80840191505092915050565b60006147ae8261598e565b6147b881856159de565b93506147c8818560208601615a99565b6147d181615ae0565b840191505092915050565b60006147e96022836159de565b91507f456e756d657261626c655365743a20696e646578206f7574206f6620626f756e60008301527f64730000000000000000000000000000000000000000000000000000000000006020830152604082019050919050565b7f4578656375746564000000000000000000000000000000000000000000000000815250565b60006148756032836159de565b91507f4552433732313a207472616e7366657220746f206e6f6e20455243373231526560008301527f63656976657220696d706c656d656e74657200000000000000000000000000006020830152604082019050919050565b60006148db6026836159de565b91507f4f776e61626c653a206e6577206f776e657220697320746865207a65726f206160008301527f64647265737300000000000000000000000000000000000000000000000000006020830152604082019050919050565b60006149416012836159de565b91507f5472616465206973206e6f74204f70656e2e00000000000000000000000000006000830152602082019050919050565b6000614981601c836159de565b91507f4552433732313a20746f6b656e20616c7265616479206d696e746564000000006000830152602082019050919050565b60006149c1601b836159de565b91507f536166654d6174683a206164646974696f6e206f766572666c6f7700000000006000830152602082019050919050565b6000614a016024836159de565b91507f4552433732313a207472616e7366657220746f20746865207a65726f2061646460008301527f72657373000000000000000000000000000000000000000000000000000000006020830152604082019050919050565b6000614a676019836159de565b91507f4552433732313a20617070726f766520746f2063616c6c6572000000000000006000830152602082019050919050565b6000614aa7602b836159de565b91507f4e6f7420656e6f756768204c494e4b202d2066696c6c20636f6e74726163742060008301527f77697468206661756365740000000000000000000000000000000000000000006020830152604082019050919050565b6000614b0d6026836159de565b91507f416464726573733a20696e73756666696369656e742062616c616e636520666f60008301527f722063616c6c00000000000000000000000000000000000000000000000000006020830152604082019050919050565b6000614b73602c836159de565b91507f4552433732313a206f70657261746f7220717565727920666f72206e6f6e657860008301527f697374656e7420746f6b656e00000000000000000000000000000000000000006020830152604082019050919050565b6000614bd96038836159de565b91507f4552433732313a20617070726f76652063616c6c6572206973206e6f74206f7760008301527f6e6572206e6f7220617070726f76656420666f7220616c6c00000000000000006020830152604082019050919050565b6000614c3f602a836159de565b91507f4552433732313a2062616c616e636520717565727920666f7220746865207a6560008301527f726f2061646472657373000000000000000000000000000000000000000000006020830152604082019050919050565b6000614ca56022836159de565b91507f456e756d657261626c654d61703a20696e646578206f7574206f6620626f756e60008301527f64730000000000000000000000000000000000000000000000000000000000006020830152604082019050919050565b6000614d0b6020836159de565b91507f4552433732313a206d696e7420746f20746865207a65726f20616464726573736000830152602082019050919050565b7f4f70656e00000000000000000000000000000000000000000000000000000000815250565b6000614d71602c836159de565b91507f4552433732313a20617070726f76656420717565727920666f72206e6f6e657860008301527f697374656e7420746f6b656e00000000000000000000000000000000000000006020830152604082019050919050565b6000614dd7602c836159de565b91507f4552433732314d657461646174613a2055524920736574206f66206e6f6e657860008301527f697374656e7420746f6b656e00000000000000000000000000000000000000006020830152604082019050919050565b6000614e3d6020836159de565b91507f4f776e61626c653a2063616c6c6572206973206e6f7420746865206f776e65726000830152602082019050919050565b6000614e7d6029836159de565b91507f4552433732313a207472616e73666572206f6620746f6b656e2074686174206960008301527f73206e6f74206f776e00000000000000000000000000000000000000000000006020830152604082019050919050565b6000614ee3602f836159de565b91507f4552433732314d657461646174613a2055524920717565727920666f72206e6f60008301527f6e6578697374656e7420746f6b656e00000000000000000000000000000000006020830152604082019050919050565b6000614f49601f836159de565b91507f4f6e6c7920565246436f6f7264696e61746f722063616e2066756c66696c6c006000830152602082019050919050565b6000614f896021836159de565b91507f4552433732313a20617070726f76616c20746f2063757272656e74206f776e6560008301527f72000000000000000000000000000000000000000000000000000000000000006020830152604082019050919050565b6000614fef6031836159de565b91507f4552433732313a207472616e736665722063616c6c6572206973206e6f74206f60008301527f776e6572206e6f7220617070726f7665640000000000000000000000000000006020830152604082019050919050565b6000615055601d836159de565b91507f416464726573733a2063616c6c20746f206e6f6e2d636f6e74726163740000006000830152602082019050919050565b6000615095602a836159de565b91507f6d73672e76616c75652073686f756c6420626520657175616c20746f2074686560008301527f20627579416d6f756e74000000000000000000000000000000000000000000006020830152604082019050919050565b608082016000820151615104600085018261460f565b5060208201516151176020850182615143565b50604082015161512a6040850182615143565b50606082015161513d606085018261469a565b50505050565b61514c81615a80565b82525050565b61515b81615a80565b82525050565b61517261516d82615a80565b615ad6565b82525050565b600061518482856146b8565b6020820191506151948284615161565b6020820191508190509392505050565b60006151b08284614708565b915081905092915050565b60006151c78285614772565b91506151d38284614772565b91508190509392505050565b60006020820190506151f4600083018461461e565b92915050565b600060808201905061520f6000830187614600565b61521c602083018661461e565b6152296040830185615152565b818103606083015261523b81846146cf565b905095945050505050565b600060608201905061525b600083018661461e565b6152686020830185615152565b818103604083015261527a81846146cf565b9050949350505050565b6000608082019050615299600083018761461e565b6152a66020830186615152565b6152b36040830185615152565b6152c060608301846146a9565b95945050505050565b600060208201905081810360008301526152e3818461462d565b905092915050565b6000602082019050615300600083018461468b565b92915050565b600060208201905061531b60008301846146a9565b92915050565b600060408201905061533660008301856146a9565b6153436020830184615152565b9392505050565b600060808201905061535f60008301876146a9565b61536c6020830186615152565b615379604083018561461e565b6153866060830184615152565b95945050505050565b600060208201905081810360008301526153a98184614739565b905092915050565b60006101608201905081810360008301526153cc818e614739565b905081810360208301526153e0818d614739565b905081810360408301526153f4818c614739565b90508181036060830152615408818b614739565b9050615417608083018a615152565b61542460a0830189615152565b61543160c0830188615152565b61543e60e0830187615152565b61544c610100830186615152565b61545a610120830185615152565b615468610140830184615152565b9c9b505050505050505050505050565b6000610160820190508181036000830152615493818e6147a3565b905081810360208301526154a7818d6147a3565b90506154b6604083018c615152565b6154c3606083018b615152565b6154d0608083018a615152565b6154dd60a0830189615152565b6154ea60c0830188615152565b6154f760e0830187615152565b81810361010083015261550a81866147a3565b905061551a610120830185615152565b81810361014083015261552d81846147a3565b90509c9b505050505050505050505050565b60006020820190508181036000830152615558816147dc565b9050919050565b6000602082019050818103600083015261557881614868565b9050919050565b60006020820190508181036000830152615598816148ce565b9050919050565b600060208201905081810360008301526155b881614934565b9050919050565b600060208201905081810360008301526155d881614974565b9050919050565b600060208201905081810360008301526155f8816149b4565b9050919050565b60006020820190508181036000830152615618816149f4565b9050919050565b6000602082019050818103600083015261563881614a5a565b9050919050565b6000602082019050818103600083015261565881614a9a565b9050919050565b6000602082019050818103600083015261567881614b00565b9050919050565b6000602082019050818103600083015261569881614b66565b9050919050565b600060208201905081810360008301526156b881614bcc565b9050919050565b600060208201905081810360008301526156d881614c32565b9050919050565b600060208201905081810360008301526156f881614c98565b9050919050565b6000602082019050818103600083015261571881614cfe565b9050919050565b6000602082019050818103600083015261573881614d64565b9050919050565b6000602082019050818103600083015261575881614dca565b9050919050565b6000602082019050818103600083015261577881614e30565b9050919050565b6000602082019050818103600083015261579881614e70565b9050919050565b600060208201905081810360008301526157b881614ed6565b9050919050565b600060208201905081810360008301526157d881614f3c565b9050919050565b600060208201905081810360008301526157f881614f7c565b9050919050565b6000602082019050818103600083015261581881614fe2565b9050919050565b6000602082019050818103600083015261583881615048565b9050919050565b6000602082019050818103600083015261585881615088565b9050919050565b600060808201905061587460008301846150ee565b92915050565b600060208201905061588f6000830184615152565b92915050565b60006040820190506158aa6000830184615152565b6158b660208301614842565b92915050565b60006040820190506158d16000830184615152565b6158dd60208301614d3e565b92915050565b6000604051905081810181811067ffffffffffffffff8211171561590657600080fd5b8060405250919050565b600067ffffffffffffffff82111561592757600080fd5b601f19601f8301169050602081019050919050565b600067ffffffffffffffff82111561595357600080fd5b601f19601f8301169050602081019050919050565b6000819050602082019050919050565b600081519050919050565b600081519050919050565b600081519050919050565b600081519050919050565b6000602082019050919050565b600082825260208201905092915050565b600082825260208201905092915050565b600081905092915050565b600082825260208201905092915050565b600081905092915050565b6000615a0582615a60565b9050919050565b6000615a1782615a60565b9050919050565b60008115159050919050565b6000819050919050565b60007fffffffff0000000000000000000000000000000000000000000000000000000082169050919050565b600073ffffffffffffffffffffffffffffffffffffffff82169050919050565b6000819050919050565b82818337600083830152505050565b60005b83811015615ab7578082015181840152602081019050615a9c565b83811115615ac6576000848401525b50505050565b6000819050919050565b6000819050919050565b6000601f19601f8301169050919050565b615afa816159fa565b8114615b0557600080fd5b50565b615b1181615a1e565b8114615b1c57600080fd5b50565b615b2881615a2a565b8114615b3357600080fd5b50565b615b3f81615a34565b8114615b4a57600080fd5b50565b615b5681615a80565b8114615b6157600080fd5b5056fe4552433732313a207472616e7366657220746f206e6f6e20455243373231526563656976657220696d706c656d656e7465724552433732313a206f776e657220717565727920666f72206e6f6e6578697374656e7420746f6b656ea2646970667358221220a52ba97186fb664f76a3093f5e784d130219ef092e6741381ba73c53dbe9387064736f6c63430006020033",
  "linkReferences": {},
  "deployedLinkReferences": {}
}