{
  "_format": "hh-sol-artifact-1",
  "contractName": "CreateWaifu",
  "sourceName": "contracts/CreateWaifu.sol",
  "abi": [
    {
      "inputs": [
        {
          "internalType": "address",
          "name": "_VRFCoordinator",
          "type": "address"
        },
        {
          "internalType": "address",
          "name": "_LinkToken",
          "type": "address"
        },
        {
          "internalType": "bytes32",
          "name": "_keyhash",
          "type": "bytes32"
        }
      ],
      "stateMutability": "nonpayable",
      "type": "constructor"
    },
    {
      "anonymous": false,
      "inputs": [
        {
          "indexed": true,
          "internalType": "address",
          "name": "owner",
          "type": "address"
        },
        {
          "indexed": true,
          "internalType": "address",
          "name": "approved",
          "type": "address"
        },
        {
          "indexed": true,
          "internalType": "uint256",
          "name": "tokenId",
          "type": "uint256"
        }
      ],
      "name": "Approval",
      "type": "event"
    },
    {
      "anonymous": false,
      "inputs": [
        {
          "indexed": true,
          "internalType": "address",
          "name": "owner",
          "type": "address"
        },
        {
          "indexed": true,
          "internalType": "address",
          "name": "operator",
          "type": "address"
        },
        {
          "indexed": false,
          "internalType": "bool",
          "name": "approved",
          "type": "bool"
        }
      ],
      "name": "ApprovalForAll",
      "type": "event"
    },
    {
      "anonymous": false,
      "inputs": [
        {
          "indexed": true,
          "internalType": "address",
          "name": "previousOwner",
          "type": "address"
        },
        {
          "indexed": true,
          "internalType": "address",
          "name": "newOwner",
          "type": "address"
        }
      ],
      "name": "OwnershipTransferred",
      "type": "event"
    },
    {
      "anonymous": false,
      "inputs": [
        {
          "indexed": false,
          "internalType": "uint256",
          "name": "ad",
          "type": "uint256"
        },
        {
          "indexed": false,
          "internalType": "bytes32",
          "name": "status",
          "type": "bytes32"
        }
      ],
      "name": "TradeStatusChange",
      "type": "event"
    },
    {
      "anonymous": false,
      "inputs": [
        {
          "indexed": true,
          "internalType": "address",
          "name": "from",
          "type": "address"
        },
        {
          "indexed": true,
          "internalType": "address",
          "name": "to",
          "type": "address"
        },
        {
          "indexed": true,
          "internalType": "uint256",
          "name": "tokenId",
          "type": "uint256"
        }
      ],
      "name": "Transfer",
      "type": "event"
    },
    {
      "inputs": [],
      "name": "LinkToken",
      "outputs": [
        {
          "internalType": "address",
          "name": "",
          "type": "address"
        }
      ],
      "stateMutability": "view",
      "type": "function"
    },
    {
      "inputs": [],
      "name": "VRFCoordinator",
      "outputs": [
        {
          "internalType": "address",
          "name": "",
          "type": "address"
        }
      ],
      "stateMutability": "view",
      "type": "function"
    },
    {
      "inputs": [
        {
          "internalType": "address",
          "name": "to",
          "type": "address"
        },
        {
          "internalType": "uint256",
          "name": "tokenId",
          "type": "uint256"
        }
      ],
      "name": "approve",
      "outputs": [],
      "stateMutability": "nonpayable",
      "type": "function"
    },
    {
      "inputs": [
        {
          "internalType": "address",
          "name": "owner",
          "type": "address"
        }
      ],
      "name": "balanceOf",
      "outputs": [
        {
          "internalType": "uint256",
          "name": "",
          "type": "uint256"
        }
      ],
      "stateMutability": "view",
      "type": "function"
    },
    {
      "inputs": [],
      "name": "baseURI",
      "outputs": [
        {
          "internalType": "string",
          "name": "",
          "type": "string"
        }
      ],
      "stateMutability": "view",
      "type": "function"
    },
    {
      "inputs": [
        {
          "internalType": "uint256",
          "name": "_tokenId",
          "type": "uint256"
        }
      ],
      "name": "buyWaifu",
      "outputs": [],
      "stateMutability": "payable",
      "type": "function"
    },
    {
      "inputs": [
        {
          "internalType": "uint256",
          "name": "",
          "type": "uint256"
        }
      ],
      "name": "forAuction",
      "outputs": [
        {
          "internalType": "uint256",
          "name": "",
          "type": "uint256"
        }
      ],
      "stateMutability": "view",
      "type": "function"
    },
    {
      "inputs": [
        {
          "internalType": "uint256",
          "name": "tokenId",
          "type": "uint256"
        }
      ],
      "name": "getApproved",
      "outputs": [
        {
          "internalType": "address",
          "name": "",
          "type": "address"
        }
      ],
      "stateMutability": "view",
      "type": "function"
    },
    {
      "inputs": [
        {
          "internalType": "uint256",
          "name": "_tokenId",
          "type": "uint256"
        }
      ],
      "name": "getAuctionTrade",
      "outputs": [
        {
          "components": [
            {
              "internalType": "address",
              "name": "seller",
              "type": "address"
            },
            {
              "internalType": "uint256",
              "name": "tokenId",
              "type": "uint256"
            },
            {
              "internalType": "uint256",
              "name": "price",
              "type": "uint256"
            },
            {
              "internalType": "bytes32",
              "name": "status",
              "type": "bytes32"
            }
          ],
          "internalType": "struct CreateWaifu.auctionTrade",
          "name": "trade_",
          "type": "tuple"
        }
      ],
      "stateMutability": "view",
      "type": "function"
    },
    {
      "inputs": [],
      "name": "getNumberOfWaifus",
      "outputs": [
        {
          "internalType": "uint256",
          "name": "",
          "type": "uint256"
        }
      ],
      "stateMutability": "view",
      "type": "function"
    },
    {
      "inputs": [
        {
          "internalType": "uint256",
          "name": "tokenId",
          "type": "uint256"
        }
      ],
      "name": "getTokenURI",
      "outputs": [
        {
          "internalType": "string",
          "name": "",
          "type": "string"
        }
      ],
      "stateMutability": "view",
      "type": "function"
    },
    {
      "inputs": [
        {
          "internalType": "uint256",
          "name": "tokenId",
          "type": "uint256"
        }
      ],
      "name": "getWaifuStats",
      "outputs": [
        {
          "internalType": "string",
          "name": "",
          "type": "string"
        },
        {
          "internalType": "string",
          "name": "",
          "type": "string"
        },
        {
          "internalType": "string",
          "name": "",
          "type": "string"
        },
        {
          "internalType": "string",
          "name": "",
          "type": "string"
        },
        {
          "internalType": "uint256",
          "name": "",
          "type": "uint256"
        },
        {
          "internalType": "uint256",
          "name": "",
          "type": "uint256"
        },
        {
          "internalType": "uint256",
          "name": "",
          "type": "uint256"
        },
        {
          "internalType": "uint256",
          "name": "",
          "type": "uint256"
        },
        {
          "internalType": "uint256",
          "name": "",
          "type": "uint256"
        },
        {
          "internalType": "uint256",
          "name": "",
          "type": "uint256"
        },
        {
          "internalType": "uint256",
          "name": "",
          "type": "uint256"
        }
      ],
      "stateMutability": "view",
      "type": "function"
    },
    {
      "inputs": [
        {
          "internalType": "address",
          "name": "_address",
          "type": "address"
        }
      ],
      "name": "getWaifusCount",
      "outputs": [
        {
          "internalType": "uint256",
          "name": "",
          "type": "uint256"
        }
      ],
      "stateMutability": "view",
      "type": "function"
    },
    {
      "inputs": [
        {
          "internalType": "uint256",
          "name": "",
          "type": "uint256"
        }
      ],
      "name": "hostedAuctions",
      "outputs": [
        {
          "internalType": "address",
          "name": "",
          "type": "address"
        }
      ],
      "stateMutability": "view",
      "type": "function"
    },
    {
      "inputs": [
        {
          "internalType": "address",
          "name": "owner",
          "type": "address"
        },
        {
          "internalType": "address",
          "name": "operator",
          "type": "address"
        }
      ],
      "name": "isApprovedForAll",
      "outputs": [
        {
          "internalType": "bool",
          "name": "",
          "type": "bool"
        }
      ],
      "stateMutability": "view",
      "type": "function"
    },
    {
      "inputs": [],
      "name": "name",
      "outputs": [
        {
          "internalType": "string",
          "name": "",
          "type": "string"
        }
      ],
      "stateMutability": "view",
      "type": "function"
    },
    {
      "inputs": [],
      "name": "owner",
      "outputs": [
        {
          "internalType": "address",
          "name": "",
          "type": "address"
        }
      ],
      "stateMutability": "view",
      "type": "function"
    },
    {
      "inputs": [
        {
          "internalType": "uint256",
          "name": "tokenId",
          "type": "uint256"
        }
      ],
      "name": "ownerOf",
      "outputs": [
        {
          "internalType": "address",
          "name": "",
          "type": "address"
        }
      ],
      "stateMutability": "view",
      "type": "function"
    },
    {
      "inputs": [
        {
          "internalType": "uint256",
          "name": "_tokenId",
          "type": "uint256"
        },
        {
          "internalType": "uint256",
          "name": "_price",
          "type": "uint256"
        }
      ],
      "name": "putForAuction",
      "outputs": [],
      "stateMutability": "nonpayable",
      "type": "function"
    },
    {
      "inputs": [],
      "name": "randomResult",
      "outputs": [
        {
          "internalType": "uint256",
          "name": "",
          "type": "uint256"
        }
      ],
      "stateMutability": "view",
      "type": "function"
    },
    {
      "inputs": [
        {
          "internalType": "bytes32",
          "name": "requestId",
          "type": "bytes32"
        },
        {
          "internalType": "uint256",
          "name": "randomness",
          "type": "uint256"
        }
      ],
      "name": "rawFulfillRandomness",
      "outputs": [],
      "stateMutability": "nonpayable",
      "type": "function"
    },
    {
      "inputs": [],
      "name": "renounceOwnership",
      "outputs": [],
      "stateMutability": "nonpayable",
      "type": "function"
    },
    {
      "inputs": [
        {
          "internalType": "uint256",
          "name": "userProvidedSeed",
          "type": "uint256"
        },
        {
          "internalType": "string",
          "name": "name",
          "type": "string"
        },
        {
          "internalType": "string",
          "name": "origin",
          "type": "string"
        },
        {
          "internalType": "string",
          "name": "description",
          "type": "string"
        },
        {
          "internalType": "string",
          "name": "waifuLink",
          "type": "string"
        }
      ],
      "name": "requestNewRandomWaifu",
      "outputs": [
        {
          "internalType": "bytes32",
          "name": "",
          "type": "bytes32"
        }
      ],
      "stateMutability": "nonpayable",
      "type": "function"
    },
    {
      "inputs": [
        {
          "internalType": "address",
          "name": "from",
          "type": "address"
        },
        {
          "internalType": "address",
          "name": "to",
          "type": "address"
        },
        {
          "internalType": "uint256",
          "name": "tokenId",
          "type": "uint256"
        }
      ],
      "name": "safeTransferFrom",
      "outputs": [],
      "stateMutability": "nonpayable",
      "type": "function"
    },
    {
      "inputs": [
        {
          "internalType": "address",
          "name": "from",
          "type": "address"
        },
        {
          "internalType": "address",
          "name": "to",
          "type": "address"
        },
        {
          "internalType": "uint256",
          "name": "tokenId",
          "type": "uint256"
        },
        {
          "internalType": "bytes",
          "name": "_data",
          "type": "bytes"
        }
      ],
      "name": "safeTransferFrom",
      "outputs": [],
      "stateMutability": "nonpayable",
      "type": "function"
    },
    {
      "inputs": [
        {
          "internalType": "address",
          "name": "",
          "type": "address"
        },
        {
          "internalType": "uint256",
          "name": "",
          "type": "uint256"
        }
      ],
      "name": "senderToTokenId",
      "outputs": [
        {
          "internalType": "uint256",
          "name": "",
          "type": "uint256"
        }
      ],
      "stateMutability": "view",
      "type": "function"
    },
    {
      "inputs": [
        {
          "internalType": "address",
          "name": "operator",
          "type": "address"
        },
        {
          "internalType": "bool",
          "name": "approved",
          "type": "bool"
        }
      ],
      "name": "setApprovalForAll",
      "outputs": [],
      "stateMutability": "nonpayable",
      "type": "function"
    },
    {
      "inputs": [
        {
          "internalType": "uint256",
          "name": "tokenId",
          "type": "uint256"
        },
        {
          "internalType": "string",
          "name": "_tokenURI",
          "type": "string"
        }
      ],
      "name": "setTokenURI",
      "outputs": [],
      "stateMutability": "nonpayable",
      "type": "function"
    },
    {
      "inputs": [
        {
          "internalType": "bytes4",
          "name": "interfaceId",
          "type": "bytes4"
        }
      ],
      "name": "supportsInterface",
      "outputs": [
        {
          "internalType": "bool",
          "name": "",
          "type": "bool"
        }
      ],
      "stateMutability": "view",
      "type": "function"
    },
    {
      "inputs": [],
      "name": "symbol",
      "outputs": [
        {
          "internalType": "string",
          "name": "",
          "type": "string"
        }
      ],
      "stateMutability": "view",
      "type": "function"
    },
    {
      "inputs": [
        {
          "internalType": "uint256",
          "name": "index",
          "type": "uint256"
        }
      ],
      "name": "tokenByIndex",
      "outputs": [
        {
          "internalType": "uint256",
          "name": "",
          "type": "uint256"
        }
      ],
      "stateMutability": "view",
      "type": "function"
    },
    {
      "inputs": [
        {
          "internalType": "address",
          "name": "owner",
          "type": "address"
        },
        {
          "internalType": "uint256",
          "name": "index",
          "type": "uint256"
        }
      ],
      "name": "tokenOfOwnerByIndex",
      "outputs": [
        {
          "internalType": "uint256",
          "name": "",
          "type": "uint256"
        }
      ],
      "stateMutability": "view",
      "type": "function"
    },
    {
      "inputs": [
        {
          "internalType": "uint256",
          "name": "tokenId",
          "type": "uint256"
        }
      ],
      "name": "tokenURI",
      "outputs": [
        {
          "internalType": "string",
          "name": "",
          "type": "string"
        }
      ],
      "stateMutability": "view",
      "type": "function"
    },
    {
      "inputs": [],
      "name": "totalSupply",
      "outputs": [
        {
          "internalType": "uint256",
          "name": "",
          "type": "uint256"
        }
      ],
      "stateMutability": "view",
      "type": "function"
    },
    {
      "inputs": [
        {
          "internalType": "uint256",
          "name": "",
          "type": "uint256"
        }
      ],
      "name": "trades",
      "outputs": [
        {
          "internalType": "address",
          "name": "seller",
          "type": "address"
        },
        {
          "internalType": "uint256",
          "name": "tokenId",
          "type": "uint256"
        },
        {
          "internalType": "uint256",
          "name": "price",
          "type": "uint256"
        },
        {
          "internalType": "bytes32",
          "name": "status",
          "type": "bytes32"
        }
      ],
      "stateMutability": "view",
      "type": "function"
    },
    {
      "inputs": [
        {
          "internalType": "address",
          "name": "from",
          "type": "address"
        },
        {
          "internalType": "address",
          "name": "to",
          "type": "address"
        },
        {
          "internalType": "uint256",
          "name": "tokenId",
          "type": "uint256"
        }
      ],
      "name": "transferFrom",
      "outputs": [],
      "stateMutability": "nonpayable",
      "type": "function"
    },
    {
      "inputs": [
        {
          "internalType": "address",
          "name": "newOwner",
          "type": "address"
        }
      ],
      "name": "transferOwnership",
      "outputs": [],
      "stateMutability": "nonpayable",
      "type": "function"
    },
    {
      "inputs": [
        {
          "internalType": "uint256",
          "name": "",
          "type": "uint256"
        }
      ],
      "name": "waifus",
      "outputs": [
        {
          "internalType": "string",
          "name": "name",
          "type": "string"
        },
        {
          "internalType": "string",
          "name": "origin",
          "type": "string"
        },
        {
          "internalType": "uint256",
          "name": "age",
          "type": "uint256"
        },
        {
          "internalType": "uint256",
          "name": "height",
          "type": "uint256"
        },
        {
          "internalType": "uint256",
          "name": "weight",
          "type": "uint256"
        },
        {
          "internalType": "uint256",
          "name": "bust",
          "type": "uint256"
        },
        {
          "internalType": "uint256",
          "name": "waist",
          "type": "uint256"
        },
        {
          "internalType": "uint256",
          "name": "hip",
          "type": "uint256"
        },
        {
          "internalType": "string",
          "name": "description",
          "type": "string"
        },
        {
          "internalType": "uint256",
          "name": "rating",
          "type": "uint256"
        },
        {
          "internalType": "string",
          "name": "waifuLink",
          "type": "string"
        }
      ],
      "stateMutability": "view",
      "type": "function"
    }
  ],
  "bytecode": "0x60806040523480156200001157600080fd5b506040516200613f3803806200613f8339818101604052620000379190810190620004d2565b82826040518060400160405280600b81526020017f43726561746557616966750000000000000000000000000000000000000000008152506040518060400160405280600381526020017f5746550000000000000000000000000000000000000000000000000000000000815250620000bd6301ffc9a760e01b6200031560201b60201c565b8160069080519060200190620000d5929190620003f5565b508060079080519060200190620000ee929190620003f5565b50620001076380ac58cd60e01b6200031560201b60201c565b6200011f635b5e139f60e01b6200031560201b60201c565b6200013763780e9d6360e01b6200031560201b60201c565b505081600b60006101000a81548173ffffffffffffffffffffffffffffffffffffffff021916908373ffffffffffffffffffffffffffffffffffffffff16021790555080600a60006101000a81548173ffffffffffffffffffffffffffffffffffffffff021916908373ffffffffffffffffffffffffffffffffffffffff16021790555050506000620001cf620003ed60201b60201c565b905080600d60006101000a81548173ffffffffffffffffffffffffffffffffffffffff021916908373ffffffffffffffffffffffffffffffffffffffff1602179055508073ffffffffffffffffffffffffffffffffffffffff16600073ffffffffffffffffffffffffffffffffffffffff167f8be0079c531659141344cd1fd0a4f28419497f9722a3daafe3b4186f6b6457e060405160405180910390a35082601160006101000a81548173ffffffffffffffffffffffffffffffffffffffff021916908373ffffffffffffffffffffffffffffffffffffffff16021790555081601260006101000a81548173ffffffffffffffffffffffffffffffffffffffff021916908373ffffffffffffffffffffffffffffffffffffffff16021790555080600e81905550655af3107a4000600f819055506000601b819055505050506200060f565b63ffffffff60e01b817bffffffffffffffffffffffffffffffffffffffffffffffffffffffff1916141562000381576040517f08c379a000000000000000000000000000000000000000000000000000000000815260040162000378906200056a565b60405180910390fd5b6001600080837bffffffffffffffffffffffffffffffffffffffffffffffffffffffff19167bffffffffffffffffffffffffffffffffffffffffffffffffffffffff1916815260200190815260200160002060006101000a81548160ff02191690831515021790555050565b600033905090565b828054600181600116156101000203166002900490600052602060002090601f016020900481019282601f106200043857805160ff191683800117855562000469565b8280016001018555821562000469579182015b82811115620004685782518255916020019190600101906200044b565b5b5090506200047891906200047c565b5090565b620004a191905b808211156200049d57600081600090555060010162000483565b5090565b90565b600081519050620004b581620005db565b92915050565b600081519050620004cc81620005f5565b92915050565b600080600060608486031215620004e857600080fd5b6000620004f886828701620004a4565b93505060206200050b86828701620004a4565b92505060406200051e86828701620004bb565b9150509250925092565b600062000537601c836200058c565b91507f4552433136353a20696e76616c696420696e74657266616365206964000000006000830152602082019050919050565b60006020820190508181036000830152620005858162000528565b9050919050565b600082825260208201905092915050565b6000620005aa82620005bb565b9050919050565b6000819050919050565b600073ffffffffffffffffffffffffffffffffffffffff82169050919050565b620005e6816200059d565b8114620005f257600080fd5b50565b6200060081620005b1565b81146200060c57600080fd5b50565b615b20806200061f6000396000f3fe6080604052600436106102255760003560e01c80636d25e3fe11610123578063a5cb1c41116100ab578063e985e9c51161006f578063e985e9c5146108ca578063f17b0a6514610907578063f2fde38b14610930578063fcaefb1914610959578063fd3582cc1461097557610225565b8063a5cb1c4114610799578063b809a6ed146107e0578063b88d4fde14610827578063c8537e4f14610850578063c87b56dd1461088d57610225565b806393049fef116100f257806393049fef146106a257806394985ddd146106df57806395d89b4114610708578063a22cb46514610733578063a4693b921461075c57610225565b80636d25e3fe146105e657806370a0823114610623578063715018a6146106605780638da5cb5b1461067757610225565b806333b60863116101b15780634f6ccce7116101755780634f6ccce7146104d95780634f8e2fdf146105165780635ce58372146105415780636352211e1461057e5780636c0360eb146105bb57610225565b806333b60863146103f257806339ab4dac1461041d5780633bb3a24d1461044857806342619f661461048557806342842e0e146104b057610225565b8063162094c4116101f8578063162094c4146102f857806318160ddd146103215780631e6c598e1461034c57806323b872dd1461038c5780632f745c59146103b557610225565b806301ffc9a71461022a57806306fdde0314610267578063081812fc14610292578063095ea7b3146102cf575b600080fd5b34801561023657600080fd5b50610251600480360361024c91908101906143d9565b6109b2565b60405161025e919061524f565b60405180910390f35b34801561027357600080fd5b5061027c610a19565b60405161028991906152f3565b60405180910390f35b34801561029e57600080fd5b506102b960048036036102b4919081019061442b565b610abb565b6040516102c69190615165565b60405180910390f35b3480156102db57600080fd5b506102f660048036036102f19190810190614338565b610b40565b005b34801561030457600080fd5b5061031f600480360361031a919081019061447d565b610c58565b005b34801561032d57600080fd5b50610336610cb6565b60405161034391906157de565b60405180910390f35b34801561035857600080fd5b50610373600480360361036e919081019061442b565b610cc7565b604051610383949392919061520a565b60405180910390f35b34801561039857600080fd5b506103b360048036036103ae9190810190614232565b610d17565b005b3480156103c157600080fd5b506103dc60048036036103d79190810190614338565b610d77565b6040516103e991906157de565b60405180910390f35b3480156103fe57600080fd5b50610407610dd2565b6040516104149190615165565b60405180910390f35b34801561042957600080fd5b50610432610df8565b60405161043f91906157de565b60405180910390f35b34801561045457600080fd5b5061046f600480360361046a919081019061442b565b610e05565b60405161047c91906152f3565b60405180910390f35b34801561049157600080fd5b5061049a610e17565b6040516104a791906157de565b60405180910390f35b3480156104bc57600080fd5b506104d760048036036104d29190810190614232565b610e1d565b005b3480156104e557600080fd5b5061050060048036036104fb919081019061442b565b610e3d565b60405161050d91906157de565b60405180910390f35b34801561052257600080fd5b5061052b610e60565b6040516105389190615165565b60405180910390f35b34801561054d57600080fd5b506105686004803603610563919081019061442b565b610e86565b60405161057591906157de565b60405180910390f35b34801561058a57600080fd5b506105a560048036036105a0919081019061442b565b610ea7565b6040516105b29190615165565b60405180910390f35b3480156105c757600080fd5b506105d0610ede565b6040516105dd91906152f3565b60405180910390f35b3480156105f257600080fd5b5061060d6004803603610608919081019061442b565b610f80565b60405161061a9190615165565b60405180910390f35b34801561062f57600080fd5b5061064a600480360361064591908101906141cd565b610fbc565b60405161065791906157de565b60405180910390f35b34801561066c57600080fd5b5061067561107b565b005b34801561068357600080fd5b5061068c6111b8565b6040516106999190615165565b60405180910390f35b3480156106ae57600080fd5b506106c960048036036106c49190810190614338565b6111e2565b6040516106d691906157de565b60405180910390f35b3480156106eb57600080fd5b506107066004803603610701919081019061439d565b611210565b005b34801561071457600080fd5b5061071d6112ae565b60405161072a91906152f3565b60405180910390f35b34801561073f57600080fd5b5061075a600480360361075591908101906142fc565b611350565b005b34801561076857600080fd5b50610783600480360361077e91908101906144d1565b6114d1565b604051610790919061526a565b60405180910390f35b3480156107a557600080fd5b506107c060048036036107bb919081019061442b565b6116d4565b6040516107d79b9a99989796959493929190615315565b60405180910390f35b3480156107ec57600080fd5b506108076004803603610802919081019061442b565b611a50565b60405161081e9b9a999897969594939291906153dc565b60405180910390f35b34801561083357600080fd5b5061084e60048036036108499190810190614281565b611d17565b005b34801561085c57600080fd5b50610877600480360361087291908101906141cd565b611d79565b60405161088491906157de565b60405180910390f35b34801561089957600080fd5b506108b460048036036108af919081019061442b565b611dc5565b6040516108c191906152f3565b60405180910390f35b3480156108d657600080fd5b506108f160048036036108ec91908101906141f6565b611f48565b6040516108fe919061524f565b60405180910390f35b34801561091357600080fd5b5061092e600480360361092991908101906145a8565b611fdc565b005b34801561093c57600080fd5b50610957600480360361095291908101906141cd565b612133565b005b610973600480360361096e919081019061442b565b6122df565b005b34801561098157600080fd5b5061099c6004803603610997919081019061442b565b612604565b6040516109a991906157c3565b60405180910390f35b6000806000837bffffffffffffffffffffffffffffffffffffffffffffffffffffffff19167bffffffffffffffffffffffffffffffffffffffffffffffffffffffff1916815260200190815260200160002060009054906101000a900460ff169050919050565b606060068054600181600116156101000203166002900480601f016020809104026020016040519081016040528092919081815260200182805460018160011615610100020316600290048015610ab15780601f10610a8657610100808354040283529160200191610ab1565b820191906000526020600020905b815481529060010190602001808311610a9457829003601f168201915b5050505050905090565b6000610ac6826126b1565b610b05576040517f08c379a0000000000000000000000000000000000000000000000000000000008152600401610afc90615683565b60405180910390fd5b6004600083815260200190815260200160002060009054906101000a900473ffffffffffffffffffffffffffffffffffffffff169050919050565b6000610b4b82610ea7565b90508073ffffffffffffffffffffffffffffffffffffffff168373ffffffffffffffffffffffffffffffffffffffff161415610bbc576040517f08c379a0000000000000000000000000000000000000000000000000000000008152600401610bb390615743565b60405180910390fd5b8073ffffffffffffffffffffffffffffffffffffffff16610bdb6126ce565b73ffffffffffffffffffffffffffffffffffffffff161480610c0a5750610c0981610c046126ce565b611f48565b5b610c49576040517f08c379a0000000000000000000000000000000000000000000000000000000008152600401610c4090615603565b60405180910390fd5b610c5383836126d6565b505050565b610c69610c636126ce565b8361278f565b610ca8576040517f08c379a0000000000000000000000000000000000000000000000000000000008152600401610c9f90615763565b60405180910390fd5b610cb2828261286d565b5050565b6000610cc260026128e1565b905090565b601c6020528060005260406000206000915090508060000160009054906101000a900473ffffffffffffffffffffffffffffffffffffffff16908060010154908060020154908060030154905084565b610d28610d226126ce565b8261278f565b610d67576040517f08c379a0000000000000000000000000000000000000000000000000000000008152600401610d5e90615763565b60405180910390fd5b610d728383836128f6565b505050565b6000610dca82600160008673ffffffffffffffffffffffffffffffffffffffff1673ffffffffffffffffffffffffffffffffffffffff168152602001908152602001600020612b0d90919063ffffffff16565b905092915050565b601160009054906101000a900473ffffffffffffffffffffffffffffffffffffffff1681565b6000601380549050905090565b6060610e1082611dc5565b9050919050565b60105481565b610e3883838360405180602001604052806000815250611d17565b505050565b600080610e54836002612b2790919063ffffffff16565b50905080915050919050565b601260009054906101000a900473ffffffffffffffffffffffffffffffffffffffff1681565b601d8181548110610e9357fe5b906000526020600020016000915090505481565b6000610ed782604051806060016040528060298152602001615ac2602991396002612b569092919063ffffffff16565b9050919050565b606060098054600181600116156101000203166002900480601f016020809104026020016040519081016040528092919081815260200182805460018160011615610100020316600290048015610f765780601f10610f4b57610100808354040283529160200191610f76565b820191906000526020600020905b815481529060010190602001808311610f5957829003601f168201915b5050505050905090565b60148181548110610f8d57fe5b906000526020600020016000915054906101000a900473ffffffffffffffffffffffffffffffffffffffff1681565b60008073ffffffffffffffffffffffffffffffffffffffff168273ffffffffffffffffffffffffffffffffffffffff16141561102d576040517f08c379a000000000000000000000000000000000000000000000000000000000815260040161102490615623565b60405180910390fd5b611074600160008473ffffffffffffffffffffffffffffffffffffffff1673ffffffffffffffffffffffffffffffffffffffff168152602001908152602001600020612b75565b9050919050565b6110836126ce565b73ffffffffffffffffffffffffffffffffffffffff166110a16111b8565b73ffffffffffffffffffffffffffffffffffffffff16146110f7576040517f08c379a00000000000000000000000000000000000000000000000000000000081526004016110ee906156c3565b60405180910390fd5b600073ffffffffffffffffffffffffffffffffffffffff16600d60009054906101000a900473ffffffffffffffffffffffffffffffffffffffff1673ffffffffffffffffffffffffffffffffffffffff167f8be0079c531659141344cd1fd0a4f28419497f9722a3daafe3b4186f6b6457e060405160405180910390a36000600d60006101000a81548173ffffffffffffffffffffffffffffffffffffffff021916908373ffffffffffffffffffffffffffffffffffffffff160217905550565b6000600d60009054906101000a900473ffffffffffffffffffffffffffffffffffffffff16905090565b601a60205281600052604060002081815481106111fb57fe5b90600052602060002001600091509150505481565b600b60009054906101000a900473ffffffffffffffffffffffffffffffffffffffff1673ffffffffffffffffffffffffffffffffffffffff163373ffffffffffffffffffffffffffffffffffffffff16146112a0576040517f08c379a000000000000000000000000000000000000000000000000000000000815260040161129790615723565b60405180910390fd5b6112aa8282612b8a565b5050565b606060078054600181600116156101000203166002900480601f0160208091040260200160405190810160405280929190818152602001828054600181600116156101000203166002900480156113465780601f1061131b57610100808354040283529160200191611346565b820191906000526020600020905b81548152906001019060200180831161132957829003601f168201915b5050505050905090565b6113586126ce565b73ffffffffffffffffffffffffffffffffffffffff168273ffffffffffffffffffffffffffffffffffffffff1614156113c6576040517f08c379a00000000000000000000000000000000000000000000000000000000081526004016113bd90615583565b60405180910390fd5b80600560006113d36126ce565b73ffffffffffffffffffffffffffffffffffffffff1673ffffffffffffffffffffffffffffffffffffffff16815260200190815260200160002060008473ffffffffffffffffffffffffffffffffffffffff1673ffffffffffffffffffffffffffffffffffffffff16815260200190815260200160002060006101000a81548160ff0219169083151502179055508173ffffffffffffffffffffffffffffffffffffffff166114806126ce565b73ffffffffffffffffffffffffffffffffffffffff167f17307eab39ab6107e8899845ad3d59bd9653f200f220920489ca2b5937696c31836040516114c5919061524f565b60405180910390a35050565b6000600f54600a60009054906101000a900473ffffffffffffffffffffffffffffffffffffffff1673ffffffffffffffffffffffffffffffffffffffff166370a08231306040518263ffffffff1660e01b81526004016115319190615165565b60206040518083038186803b15801561154957600080fd5b505afa15801561155d573d6000803e3d6000fd5b505050506040513d601f19601f820116820180604052506115819190810190614454565b10156115c2576040517f08c379a00000000000000000000000000000000000000000000000000000000081526004016115b9906155a3565b60405180910390fd5b60006115d3600e54600f54896130de565b9050856015600083815260200190815260200160002090805190602001906115fc929190613ebd565b5084601660008381526020019081526020016000209080519060200190611624929190613ebd565b508360176000838152602001908152602001600020908051906020019061164c929190613ebd565b5082601860008381526020019081526020016000209080519060200190611674929190613ebd565b50336019600083815260200190815260200160002060006101000a81548173ffffffffffffffffffffffffffffffffffffffff021916908373ffffffffffffffffffffffffffffffffffffffff1602179055508091505095945050505050565b60608060608060008060008060008060006116ed613f3d565b60138d815481106116fa57fe5b90600052602060002090600b020160405180610160016040529081600082018054600181600116156101000203166002900480601f0160208091040260200160405190810160405280929190818152602001828054600181600116156101000203166002900480156117ad5780601f10611782576101008083540402835291602001916117ad565b820191906000526020600020905b81548152906001019060200180831161179057829003601f168201915b50505050508152602001600182018054600181600116156101000203166002900480601f01602080910402602001604051908101604052809291908181526020018280546001816001161561010002031660029004801561184f5780601f106118245761010080835404028352916020019161184f565b820191906000526020600020905b81548152906001019060200180831161183257829003601f168201915b50505050508152602001600282015481526020016003820154815260200160048201548152602001600582015481526020016006820154815260200160078201548152602001600882018054600181600116156101000203166002900480601f01602080910402602001604051908101604052809291908181526020018280546001816001161561010002031660029004801561192d5780601f106119025761010080835404028352916020019161192d565b820191906000526020600020905b81548152906001019060200180831161191057829003601f168201915b5050505050815260200160098201548152602001600a82018054600181600116156101000203166002900480601f0160208091040260200160405190810160405280929190818152602001828054600181600116156101000203166002900480156119d95780601f106119ae576101008083540402835291602001916119d9565b820191906000526020600020905b8154815290600101906020018083116119bc57829003601f168201915b5050505050815250509050806000015181602001518261010001518361014001518460400151856060015186608001518760a001518860c001518960e001518a61012001518a9a508999508898508797509b509b509b509b509b509b509b509b509b509b509b505091939597999b90929496989a50565b60138181548110611a5d57fe5b90600052602060002090600b0201600091509050806000018054600181600116156101000203166002900480601f016020809104026020016040519081016040528092919081815260200182805460018160011615610100020316600290048015611b095780601f10611ade57610100808354040283529160200191611b09565b820191906000526020600020905b815481529060010190602001808311611aec57829003601f168201915b505050505090806001018054600181600116156101000203166002900480601f016020809104026020016040519081016040528092919081815260200182805460018160011615610100020316600290048015611ba75780601f10611b7c57610100808354040283529160200191611ba7565b820191906000526020600020905b815481529060010190602001808311611b8a57829003601f168201915b505050505090806002015490806003015490806004015490806005015490806006015490806007015490806008018054600181600116156101000203166002900480601f016020809104026020016040519081016040528092919081815260200182805460018160011615610100020316600290048015611c695780601f10611c3e57610100808354040283529160200191611c69565b820191906000526020600020905b815481529060010190602001808311611c4c57829003601f168201915b50505050509080600901549080600a018054600181600116156101000203166002900480601f016020809104026020016040519081016040528092919081815260200182805460018160011615610100020316600290048015611d0d5780601f10611ce257610100808354040283529160200191611d0d565b820191906000526020600020905b815481529060010190602001808311611cf057829003601f168201915b505050505090508b565b611d28611d226126ce565b8361278f565b611d67576040517f08c379a0000000000000000000000000000000000000000000000000000000008152600401611d5e90615763565b60405180910390fd5b611d738484848461324a565b50505050565b6000601a60008373ffffffffffffffffffffffffffffffffffffffff1673ffffffffffffffffffffffffffffffffffffffff168152602001908152602001600020805490509050919050565b6060611dd0826126b1565b611e0f576040517f08c379a0000000000000000000000000000000000000000000000000000000008152600401611e0690615703565b60405180910390fd5b6060600860008481526020019081526020016000208054600181600116156101000203166002900480601f016020809104026020016040519081016040528092919081815260200182805460018160011615610100020316600290048015611eb85780601f10611e8d57610100808354040283529160200191611eb8565b820191906000526020600020905b815481529060010190602001808311611e9b57829003601f168201915b505050505090506060611ec9610ede565b9050600081511415611edf578192505050611f43565b600082511115611f14578082604051602001611efc929190615141565b60405160208183030381529060405292505050611f43565b80611f1e856132a6565b604051602001611f2f929190615141565b604051602081830303815290604052925050505b919050565b6000600560008473ffffffffffffffffffffffffffffffffffffffff1673ffffffffffffffffffffffffffffffffffffffff16815260200190815260200160002060008373ffffffffffffffffffffffffffffffffffffffff1673ffffffffffffffffffffffffffffffffffffffff16815260200190815260200160002060009054906101000a900460ff16905092915050565b611fe73330846133d6565b60405180608001604052803373ffffffffffffffffffffffffffffffffffffffff1681526020018381526020018281526020017f4f70656e00000000000000000000000000000000000000000000000000000000815250601c600084815260200190815260200160002060008201518160000160006101000a81548173ffffffffffffffffffffffffffffffffffffffff021916908373ffffffffffffffffffffffffffffffffffffffff1602179055506020820151816001015560408201518160020155606082015181600301559050506001601b60008282540192505081905550601d8290806001815401808255809150506001900390600052602060002001600090919091909150557f4d38ed2c5ea671a5ccddc331f0ebebd94a60aaf6e572543497485d4d148f9edf6001601b54036040516121279190615820565b60405180910390a15050565b61213b6126ce565b73ffffffffffffffffffffffffffffffffffffffff166121596111b8565b73ffffffffffffffffffffffffffffffffffffffff16146121af576040517f08c379a00000000000000000000000000000000000000000000000000000000081526004016121a6906156c3565b60405180910390fd5b600073ffffffffffffffffffffffffffffffffffffffff168173ffffffffffffffffffffffffffffffffffffffff16141561221f576040517f08c379a0000000000000000000000000000000000000000000000000000000008152600401612216906154e3565b60405180910390fd5b8073ffffffffffffffffffffffffffffffffffffffff16600d60009054906101000a900473ffffffffffffffffffffffffffffffffffffffff1673ffffffffffffffffffffffffffffffffffffffff167f8be0079c531659141344cd1fd0a4f28419497f9722a3daafe3b4186f6b6457e060405160405180910390a380600d60006101000a81548173ffffffffffffffffffffffffffffffffffffffff021916908373ffffffffffffffffffffffffffffffffffffffff16021790555050565b6122e7613f97565b6122f082612604565b90507f4f70656e00000000000000000000000000000000000000000000000000000000816060015114612358576040517f08c379a000000000000000000000000000000000000000000000000000000000815260040161234f90615503565b60405180910390fd5b6000816000015190506000826040015190508034146123ac576040517f08c379a00000000000000000000000000000000000000000000000000000000081526004016123a3906157a3565b60405180910390fd5b8173ffffffffffffffffffffffffffffffffffffffff166108fc829081150290604051600060405180830381858888f193505050501580156123f2573d6000803e3d6000fd5b5060003390506124028186610b40565b61240d3082876133d6565b7f457865637574656400000000000000000000000000000000000000000000000061243786612604565b60600181815250507f4d38ed2c5ea671a5ccddc331f0ebebd94a60aaf6e572543497485d4d148f9edf8560405161246e91906157f9565b60405180910390a1600080600090505b601a6000876000015173ffffffffffffffffffffffffffffffffffffffff1673ffffffffffffffffffffffffffffffffffffffff16815260200190815260200160002080549050811015612545578560200151601a6000886000015173ffffffffffffffffffffffffffffffffffffffff1673ffffffffffffffffffffffffffffffffffffffff168152602001908152602001600020828154811061251f57fe5b9060005260206000200154141561253857809150612545565b808060010191505061247e565b50612592601a6000876000015173ffffffffffffffffffffffffffffffffffffffff1673ffffffffffffffffffffffffffffffffffffffff168152602001908152602001600020826133e6565b601a60008373ffffffffffffffffffffffffffffffffffffffff1673ffffffffffffffffffffffffffffffffffffffff16815260200190815260200160002085602001519080600181540180825580915050600190039060005260206000200160009091909190915055505050505050565b61260c613f97565b612614613f97565b601c60008481526020019081526020016000206040518060800160405290816000820160009054906101000a900473ffffffffffffffffffffffffffffffffffffffff1673ffffffffffffffffffffffffffffffffffffffff1673ffffffffffffffffffffffffffffffffffffffff1681526020016001820154815260200160028201548152602001600382015481525050905080915050919050565b60006126c782600261344290919063ffffffff16565b9050919050565b600033905090565b816004600083815260200190815260200160002060006101000a81548173ffffffffffffffffffffffffffffffffffffffff021916908373ffffffffffffffffffffffffffffffffffffffff160217905550808273ffffffffffffffffffffffffffffffffffffffff1661274983610ea7565b73ffffffffffffffffffffffffffffffffffffffff167f8c5be1e5ebec7d5bd14f71427d1e84f3dd0314c0f7b2291e5b200ac8c7c3b92560405160405180910390a45050565b600061279a826126b1565b6127d9576040517f08c379a00000000000000000000000000000000000000000000000000000000081526004016127d0906155e3565b60405180910390fd5b60006127e483610ea7565b90508073ffffffffffffffffffffffffffffffffffffffff168473ffffffffffffffffffffffffffffffffffffffff16148061285357508373ffffffffffffffffffffffffffffffffffffffff1661283b84610abb565b73ffffffffffffffffffffffffffffffffffffffff16145b8061286457506128638185611f48565b5b91505092915050565b612876826126b1565b6128b5576040517f08c379a00000000000000000000000000000000000000000000000000000000081526004016128ac906156a3565b60405180910390fd5b806008600084815260200190815260200160002090805190602001906128dc929190613ebd565b505050565b60006128ef8260000161345c565b9050919050565b8273ffffffffffffffffffffffffffffffffffffffff1661291682610ea7565b73ffffffffffffffffffffffffffffffffffffffff161461296c576040517f08c379a0000000000000000000000000000000000000000000000000000000008152600401612963906156e3565b60405180910390fd5b600073ffffffffffffffffffffffffffffffffffffffff168273ffffffffffffffffffffffffffffffffffffffff1614156129dc576040517f08c379a00000000000000000000000000000000000000000000000000000000081526004016129d390615563565b60405180910390fd5b6129e783838361346d565b6129f26000826126d6565b612a4381600160008673ffffffffffffffffffffffffffffffffffffffff1673ffffffffffffffffffffffffffffffffffffffff16815260200190815260200160002061347290919063ffffffff16565b50612a9581600160008573ffffffffffffffffffffffffffffffffffffffff1673ffffffffffffffffffffffffffffffffffffffff16815260200190815260200160002061348c90919063ffffffff16565b50612aac818360026134a69092919063ffffffff16565b50808273ffffffffffffffffffffffffffffffffffffffff168473ffffffffffffffffffffffffffffffffffffffff167fddf252ad1be2c89b69c2b068fc378daa952ba7f163c4a11628f55a4df523b3ef60405160405180910390a4505050565b6000612b1c83600001836134db565b60001c905092915050565b600080600080612b3a8660000186613548565b915091508160001c8160001c8090509350935050509250929050565b6000612b69846000018460001b846135cb565b60001c90509392505050565b6000612b838260000161365c565b9050919050565b60006013805490509050600060016127108481612ba357fe5b060190506000605a60a08581612bb557fe5b060190506000600a601e8681612bc757fe5b060190506000604b606e8781612bd957fe5b060190506000603660508881612beb57fe5b0601905060006052606e8981612bfd57fe5b060190506000600160648a81612c0f57fe5b0681612c1757fe5b0490506013604051806101600160405280601560008e81526020019081526020016000208054600181600116156101000203166002900480601f016020809104026020016040519081016040528092919081815260200182805460018160011615610100020316600290048015612ccf5780601f10612ca457610100808354040283529160200191612ccf565b820191906000526020600020905b815481529060010190602001808311612cb257829003601f168201915b50505050508152602001601660008e81526020019081526020016000208054600181600116156101000203166002900480601f016020809104026020016040519081016040528092919081815260200182805460018160011615610100020316600290048015612d805780601f10612d5557610100808354040283529160200191612d80565b820191906000526020600020905b815481529060010190602001808311612d6357829003601f168201915b50505050508152602001898152602001888152602001878152602001868152602001858152602001848152602001601760008e81526020019081526020016000208054600181600116156101000203166002900480601f016020809104026020016040519081016040528092919081815260200182805460018160011615610100020316600290048015612e555780601f10612e2a57610100808354040283529160200191612e55565b820191906000526020600020905b815481529060010190602001808311612e3857829003601f168201915b50505050508152602001838152602001601860008e81526020019081526020016000208054600181600116156101000203166002900480601f016020809104026020016040519081016040528092919081815260200182805460018160011615610100020316600290048015612f0c5780601f10612ee157610100808354040283529160200191612f0c565b820191906000526020600020905b815481529060010190602001808311612eef57829003601f168201915b505050505081525090806001815401808255809150506001900390600052602060002090600b02016000909190919091506000820151816000019080519060200190612f59929190613fd8565b506020820151816001019080519060200190612f76929190613fd8565b5060408201518160020155606082015181600301556080820151816004015560a0820151816005015560c0820151816006015560e08201518160070155610100820151816008019080519060200190612fd0929190613fd8565b50610120820151816009015561014082015181600a019080519060200190612ff9929190613fd8565b505050613039601960008c815260200190815260200160002060009054906101000a900473ffffffffffffffffffffffffffffffffffffffff168961366d565b601a6000601960008d815260200190815260200160002060009054906101000a900473ffffffffffffffffffffffffffffffffffffffff1673ffffffffffffffffffffffffffffffffffffffff1673ffffffffffffffffffffffffffffffffffffffff16815260200190815260200160002088908060018154018082558091505060019003906000526020600020016000909190919091505550505050505050505050565b6000600a60009054906101000a900473ffffffffffffffffffffffffffffffffffffffff1673ffffffffffffffffffffffffffffffffffffffff16634000aea0600b60009054906101000a900473ffffffffffffffffffffffffffffffffffffffff16858786604051602001613155929190615285565b6040516020818303038152906040526040518463ffffffff1660e01b8152600401613182939291906151cc565b602060405180830381600087803b15801561319c57600080fd5b505af11580156131b0573d6000803e3d6000fd5b505050506040513d601f19601f820116820180604052506131d49190810190614374565b5060006131f6858430600c60008a81526020019081526020016000205461368b565b905061321f6001600c6000888152602001908152602001600020546136c790919063ffffffff16565b600c600087815260200190815260200160002081905550613240858261371c565b9150509392505050565b6132558484846128f6565b6132618484848461374f565b6132a0576040517f08c379a0000000000000000000000000000000000000000000000000000000008152600401613297906154c3565b60405180910390fd5b50505050565b606060008214156132ee576040518060400160405280600181526020017f300000000000000000000000000000000000000000000000000000000000000081525090506133d1565b600082905060005b60008214613318578080600101915050600a828161331057fe5b0491506132f6565b6060816040519080825280601f01601f19166020018201604052801561334d5781602001600182028038833980820191505090505b50905060006001830390508593505b600084146133c957600a848161336e57fe5b0660300160f81b8282806001900393508151811061338857fe5b60200101907effffffffffffffffffffffffffffffffffffffffffffffffffffffffffffff1916908160001a905350600a84816133c157fe5b04935061335c565b819450505050505b919050565b6133e1838383610e1d565b505050565b816001838054905003815481106133f957fe5b906000526020600020015482828154811061341057fe5b90600052602060002001819055508180548061342857fe5b600190038181906000526020600020016000905590555050565b6000613454836000018360001b6138b3565b905092915050565b600081600001805490509050919050565b505050565b6000613484836000018360001b6138d6565b905092915050565b600061349e836000018360001b6139be565b905092915050565b60006134d2846000018460001b8473ffffffffffffffffffffffffffffffffffffffff1660001b613a2e565b90509392505050565b600081836000018054905011613526576040517f08c379a000000000000000000000000000000000000000000000000000000000815260040161351d906154a3565b60405180910390fd5b82600001828154811061353557fe5b9060005260206000200154905092915050565b60008082846000018054905011613594576040517f08c379a000000000000000000000000000000000000000000000000000000000815260040161358b90615643565b60405180910390fd5b60008460000184815481106135a557fe5b906000526020600020906002020190508060000154816001015492509250509250929050565b6000808460010160008581526020019081526020016000205490506000811415839061362d576040517f08c379a000000000000000000000000000000000000000000000000000000000815260040161362491906152f3565b60405180910390fd5b5084600001600182038154811061364057fe5b9060005260206000209060020201600101549150509392505050565b600081600001805490509050919050565b613687828260405180602001604052806000815250613b0a565b5050565b6000848484846040516020016136a494939291906152ae565b6040516020818303038152906040528051906020012060001c9050949350505050565b600080828401905083811015613712576040517f08c379a000000000000000000000000000000000000000000000000000000000815260040161370990615543565b60405180910390fd5b8091505092915050565b600082826040516020016137319291906150fe565b60405160208183030381529060405280519060200120905092915050565b60006137708473ffffffffffffffffffffffffffffffffffffffff16613b65565b61377d57600190506138ab565b606061384463150b7a0260e01b6137926126ce565b8887876040516024016137a89493929190615180565b604051602081830303815290604052907bffffffffffffffffffffffffffffffffffffffffffffffffffffffff19166020820180517bffffffffffffffffffffffffffffffffffffffffffffffffffffffff8381831617835250505050604051806060016040528060328152602001615a90603291398773ffffffffffffffffffffffffffffffffffffffff16613b789092919063ffffffff16565b905060008180602001905161385c9190810190614402565b905063150b7a0260e01b7bffffffffffffffffffffffffffffffffffffffffffffffffffffffff1916817bffffffffffffffffffffffffffffffffffffffffffffffffffffffff191614925050505b949350505050565b600080836001016000848152602001908152602001600020541415905092915050565b600080836001016000848152602001908152602001600020549050600081146139b2576000600182039050600060018660000180549050039050600086600001828154811061392157fe5b906000526020600020015490508087600001848154811061393e57fe5b906000526020600020018190555060018301876001016000838152602001908152602001600020819055508660000180548061397657fe5b600190038181906000526020600020016000905590558660010160008781526020019081526020016000206000905560019450505050506139b8565b60009150505b92915050565b60006139ca8383613b90565b613a23578260000182908060018154018082558091505060019003906000526020600020016000909190919091505582600001805490508360010160008481526020019081526020016000208190555060019050613a28565b600090505b92915050565b6000808460010160008581526020019081526020016000205490506000811415613ad557846000016040518060400160405280868152602001858152509080600181540180825580915050600190039060005260206000209060020201600090919091909150600082015181600001556020820151816001015550508460000180549050856001016000868152602001908152602001600020819055506001915050613b03565b82856000016001830381548110613ae857fe5b90600052602060002090600202016001018190555060009150505b9392505050565b613b148383613bb3565b613b21600084848461374f565b613b60576040517f08c379a0000000000000000000000000000000000000000000000000000000008152600401613b57906154c3565b60405180910390fd5b505050565b600080823b905060008111915050919050565b6060613b878484600085613d41565b90509392505050565b600080836001016000848152602001908152602001600020541415905092915050565b600073ffffffffffffffffffffffffffffffffffffffff168273ffffffffffffffffffffffffffffffffffffffff161415613c23576040517f08c379a0000000000000000000000000000000000000000000000000000000008152600401613c1a90615663565b60405180910390fd5b613c2c816126b1565b15613c6c576040517f08c379a0000000000000000000000000000000000000000000000000000000008152600401613c6390615523565b60405180910390fd5b613c786000838361346d565b613cc981600160008573ffffffffffffffffffffffffffffffffffffffff1673ffffffffffffffffffffffffffffffffffffffff16815260200190815260200160002061348c90919063ffffffff16565b50613ce0818360026134a69092919063ffffffff16565b50808273ffffffffffffffffffffffffffffffffffffffff16600073ffffffffffffffffffffffffffffffffffffffff167fddf252ad1be2c89b69c2b068fc378daa952ba7f163c4a11628f55a4df523b3ef60405160405180910390a45050565b606082471015613d86576040517f08c379a0000000000000000000000000000000000000000000000000000000008152600401613d7d906155c3565b60405180910390fd5b613d8f85613b65565b613dce576040517f08c379a0000000000000000000000000000000000000000000000000000000008152600401613dc590615783565b60405180910390fd5b600060608673ffffffffffffffffffffffffffffffffffffffff168587604051613df8919061512a565b60006040518083038185875af1925050503d8060008114613e35576040519150601f19603f3d011682016040523d82523d6000602084013e613e3a565b606091505b5091509150613e4a828286613e56565b92505050949350505050565b60608315613e6657829050613eb6565b600083511115613e795782518084602001fd5b816040517f08c379a0000000000000000000000000000000000000000000000000000000008152600401613ead91906152f3565b60405180910390fd5b9392505050565b828054600181600116156101000203166002900490600052602060002090601f016020900481019282601f10613efe57805160ff1916838001178555613f2c565b82800160010185558215613f2c579182015b82811115613f2b578251825591602001919060010190613f10565b5b509050613f399190614058565b5090565b60405180610160016040528060608152602001606081526020016000815260200160008152602001600081526020016000815260200160008152602001600081526020016060815260200160008152602001606081525090565b6040518060800160405280600073ffffffffffffffffffffffffffffffffffffffff1681526020016000815260200160008152602001600080191681525090565b828054600181600116156101000203166002900490600052602060002090601f016020900481019282601f1061401957805160ff1916838001178555614047565b82800160010185558215614047579182015b8281111561404657825182559160200191906001019061402b565b5b5090506140549190614058565b5090565b61407a91905b8082111561407657600081600090555060010161405e565b5090565b90565b60008135905061408c81615a1c565b92915050565b6000813590506140a181615a33565b92915050565b6000815190506140b681615a33565b92915050565b6000813590506140cb81615a4a565b92915050565b6000813590506140e081615a61565b92915050565b6000815190506140f581615a61565b92915050565b600082601f83011261410c57600080fd5b813561411f61411a82615874565b615847565b9150808252602083016020830185838301111561413b57600080fd5b6141468382846159b5565b50505092915050565b600082601f83011261416057600080fd5b813561417361416e826158a0565b615847565b9150808252602083016020830185838301111561418f57600080fd5b61419a8382846159b5565b50505092915050565b6000813590506141b281615a78565b92915050565b6000815190506141c781615a78565b92915050565b6000602082840312156141df57600080fd5b60006141ed8482850161407d565b91505092915050565b6000806040838503121561420957600080fd5b60006142178582860161407d565b92505060206142288582860161407d565b9150509250929050565b60008060006060848603121561424757600080fd5b60006142558682870161407d565b93505060206142668682870161407d565b9250506040614277868287016141a3565b9150509250925092565b6000806000806080858703121561429757600080fd5b60006142a58782880161407d565b94505060206142b68782880161407d565b93505060406142c7878288016141a3565b925050606085013567ffffffffffffffff8111156142e457600080fd5b6142f0878288016140fb565b91505092959194509250565b6000806040838503121561430f57600080fd5b600061431d8582860161407d565b925050602061432e85828601614092565b9150509250929050565b6000806040838503121561434b57600080fd5b60006143598582860161407d565b925050602061436a858286016141a3565b9150509250929050565b60006020828403121561438657600080fd5b6000614394848285016140a7565b91505092915050565b600080604083850312156143b057600080fd5b60006143be858286016140bc565b92505060206143cf858286016141a3565b9150509250929050565b6000602082840312156143eb57600080fd5b60006143f9848285016140d1565b91505092915050565b60006020828403121561441457600080fd5b6000614422848285016140e6565b91505092915050565b60006020828403121561443d57600080fd5b600061444b848285016141a3565b91505092915050565b60006020828403121561446657600080fd5b6000614474848285016141b8565b91505092915050565b6000806040838503121561449057600080fd5b600061449e858286016141a3565b925050602083013567ffffffffffffffff8111156144bb57600080fd5b6144c78582860161414f565b9150509250929050565b600080600080600060a086880312156144e957600080fd5b60006144f7888289016141a3565b955050602086013567ffffffffffffffff81111561451457600080fd5b6145208882890161414f565b945050604086013567ffffffffffffffff81111561453d57600080fd5b6145498882890161414f565b935050606086013567ffffffffffffffff81111561456657600080fd5b6145728882890161414f565b925050608086013567ffffffffffffffff81111561458f57600080fd5b61459b8882890161414f565b9150509295509295909350565b600080604083850312156145bb57600080fd5b60006145c9858286016141a3565b92505060206145da858286016141a3565b9150509250929050565b6145ed81615937565b82525050565b6145fc81615925565b82525050565b61460b81615925565b82525050565b61461a81615949565b82525050565b61462981615955565b82525050565b61463881615955565b82525050565b61464f61464a82615955565b6159f7565b82525050565b6000614660826158cc565b61466a81856158ed565b935061467a8185602086016159c4565b61468381615a0b565b840191505092915050565b6000614699826158cc565b6146a381856158fe565b93506146b38185602086016159c4565b80840191505092915050565b60006146ca826158e2565b6146d48185615909565b93506146e48185602086016159c4565b6146ed81615a0b565b840191505092915050565b6000614703826158e2565b61470d818561591a565b935061471d8185602086016159c4565b80840191505092915050565b6000614734826158d7565b61473e8185615909565b935061474e8185602086016159c4565b61475781615a0b565b840191505092915050565b600061476f602283615909565b91507f456e756d657261626c655365743a20696e646578206f7574206f6620626f756e60008301527f64730000000000000000000000000000000000000000000000000000000000006020830152604082019050919050565b7f4578656375746564000000000000000000000000000000000000000000000000815250565b60006147fb603283615909565b91507f4552433732313a207472616e7366657220746f206e6f6e20455243373231526560008301527f63656976657220696d706c656d656e74657200000000000000000000000000006020830152604082019050919050565b6000614861602683615909565b91507f4f776e61626c653a206e6577206f776e657220697320746865207a65726f206160008301527f64647265737300000000000000000000000000000000000000000000000000006020830152604082019050919050565b60006148c7601283615909565b91507f5472616465206973206e6f74204f70656e2e00000000000000000000000000006000830152602082019050919050565b6000614907601c83615909565b91507f4552433732313a20746f6b656e20616c7265616479206d696e746564000000006000830152602082019050919050565b6000614947601b83615909565b91507f536166654d6174683a206164646974696f6e206f766572666c6f7700000000006000830152602082019050919050565b6000614987602483615909565b91507f4552433732313a207472616e7366657220746f20746865207a65726f2061646460008301527f72657373000000000000000000000000000000000000000000000000000000006020830152604082019050919050565b60006149ed601983615909565b91507f4552433732313a20617070726f766520746f2063616c6c6572000000000000006000830152602082019050919050565b6000614a2d602b83615909565b91507f4e6f7420656e6f756768204c494e4b202d2066696c6c20636f6e74726163742060008301527f77697468206661756365740000000000000000000000000000000000000000006020830152604082019050919050565b6000614a93602683615909565b91507f416464726573733a20696e73756666696369656e742062616c616e636520666f60008301527f722063616c6c00000000000000000000000000000000000000000000000000006020830152604082019050919050565b6000614af9602c83615909565b91507f4552433732313a206f70657261746f7220717565727920666f72206e6f6e657860008301527f697374656e7420746f6b656e00000000000000000000000000000000000000006020830152604082019050919050565b6000614b5f603883615909565b91507f4552433732313a20617070726f76652063616c6c6572206973206e6f74206f7760008301527f6e6572206e6f7220617070726f76656420666f7220616c6c00000000000000006020830152604082019050919050565b6000614bc5602a83615909565b91507f4552433732313a2062616c616e636520717565727920666f7220746865207a6560008301527f726f2061646472657373000000000000000000000000000000000000000000006020830152604082019050919050565b6000614c2b602283615909565b91507f456e756d657261626c654d61703a20696e646578206f7574206f6620626f756e60008301527f64730000000000000000000000000000000000000000000000000000000000006020830152604082019050919050565b6000614c91602083615909565b91507f4552433732313a206d696e7420746f20746865207a65726f20616464726573736000830152602082019050919050565b7f4f70656e00000000000000000000000000000000000000000000000000000000815250565b6000614cf7602c83615909565b91507f4552433732313a20617070726f76656420717565727920666f72206e6f6e657860008301527f697374656e7420746f6b656e00000000000000000000000000000000000000006020830152604082019050919050565b6000614d5d602c83615909565b91507f4552433732314d657461646174613a2055524920736574206f66206e6f6e657860008301527f697374656e7420746f6b656e00000000000000000000000000000000000000006020830152604082019050919050565b6000614dc3602083615909565b91507f4f776e61626c653a2063616c6c6572206973206e6f7420746865206f776e65726000830152602082019050919050565b6000614e03602983615909565b91507f4552433732313a207472616e73666572206f6620746f6b656e2074686174206960008301527f73206e6f74206f776e00000000000000000000000000000000000000000000006020830152604082019050919050565b6000614e69602f83615909565b91507f4552433732314d657461646174613a2055524920717565727920666f72206e6f60008301527f6e6578697374656e7420746f6b656e00000000000000000000000000000000006020830152604082019050919050565b6000614ecf601f83615909565b91507f4f6e6c7920565246436f6f7264696e61746f722063616e2066756c66696c6c006000830152602082019050919050565b6000614f0f602183615909565b91507f4552433732313a20617070726f76616c20746f2063757272656e74206f776e6560008301527f72000000000000000000000000000000000000000000000000000000000000006020830152604082019050919050565b6000614f75603183615909565b91507f4552433732313a207472616e736665722063616c6c6572206973206e6f74206f60008301527f776e6572206e6f7220617070726f7665640000000000000000000000000000006020830152604082019050919050565b6000614fdb601d83615909565b91507f416464726573733a2063616c6c20746f206e6f6e2d636f6e74726163740000006000830152602082019050919050565b600061501b602a83615909565b91507f6d73672e76616c75652073686f756c6420626520657175616c20746f2074686560008301527f20627579416d6f756e74000000000000000000000000000000000000000000006020830152604082019050919050565b60808201600082015161508a60008501826145f3565b50602082015161509d60208501826150c9565b5060408201516150b060408501826150c9565b5060608201516150c36060850182614620565b50505050565b6150d2816159ab565b82525050565b6150e1816159ab565b82525050565b6150f86150f3826159ab565b615a01565b82525050565b600061510a828561463e565b60208201915061511a82846150e7565b6020820191508190509392505050565b6000615136828461468e565b915081905092915050565b600061514d82856146f8565b915061515982846146f8565b91508190509392505050565b600060208201905061517a6000830184614602565b92915050565b600060808201905061519560008301876145e4565b6151a26020830186614602565b6151af60408301856150d8565b81810360608301526151c18184614655565b905095945050505050565b60006060820190506151e16000830186614602565b6151ee60208301856150d8565b81810360408301526152008184614655565b9050949350505050565b600060808201905061521f6000830187614602565b61522c60208301866150d8565b61523960408301856150d8565b615246606083018461462f565b95945050505050565b60006020820190506152646000830184614611565b92915050565b600060208201905061527f600083018461462f565b92915050565b600060408201905061529a600083018561462f565b6152a760208301846150d8565b9392505050565b60006080820190506152c3600083018761462f565b6152d060208301866150d8565b6152dd6040830185614602565b6152ea60608301846150d8565b95945050505050565b6000602082019050818103600083015261530d81846146bf565b905092915050565b6000610160820190508181036000830152615330818e6146bf565b90508181036020830152615344818d6146bf565b90508181036040830152615358818c6146bf565b9050818103606083015261536c818b6146bf565b905061537b608083018a6150d8565b61538860a08301896150d8565b61539560c08301886150d8565b6153a260e08301876150d8565b6153b06101008301866150d8565b6153be6101208301856150d8565b6153cc6101408301846150d8565b9c9b505050505050505050505050565b60006101608201905081810360008301526153f7818e614729565b9050818103602083015261540b818d614729565b905061541a604083018c6150d8565b615427606083018b6150d8565b615434608083018a6150d8565b61544160a08301896150d8565b61544e60c08301886150d8565b61545b60e08301876150d8565b81810361010083015261546e8186614729565b905061547e6101208301856150d8565b8181036101408301526154918184614729565b90509c9b505050505050505050505050565b600060208201905081810360008301526154bc81614762565b9050919050565b600060208201905081810360008301526154dc816147ee565b9050919050565b600060208201905081810360008301526154fc81614854565b9050919050565b6000602082019050818103600083015261551c816148ba565b9050919050565b6000602082019050818103600083015261553c816148fa565b9050919050565b6000602082019050818103600083015261555c8161493a565b9050919050565b6000602082019050818103600083015261557c8161497a565b9050919050565b6000602082019050818103600083015261559c816149e0565b9050919050565b600060208201905081810360008301526155bc81614a20565b9050919050565b600060208201905081810360008301526155dc81614a86565b9050919050565b600060208201905081810360008301526155fc81614aec565b9050919050565b6000602082019050818103600083015261561c81614b52565b9050919050565b6000602082019050818103600083015261563c81614bb8565b9050919050565b6000602082019050818103600083015261565c81614c1e565b9050919050565b6000602082019050818103600083015261567c81614c84565b9050919050565b6000602082019050818103600083015261569c81614cea565b9050919050565b600060208201905081810360008301526156bc81614d50565b9050919050565b600060208201905081810360008301526156dc81614db6565b9050919050565b600060208201905081810360008301526156fc81614df6565b9050919050565b6000602082019050818103600083015261571c81614e5c565b9050919050565b6000602082019050818103600083015261573c81614ec2565b9050919050565b6000602082019050818103600083015261575c81614f02565b9050919050565b6000602082019050818103600083015261577c81614f68565b9050919050565b6000602082019050818103600083015261579c81614fce565b9050919050565b600060208201905081810360008301526157bc8161500e565b9050919050565b60006080820190506157d86000830184615074565b92915050565b60006020820190506157f360008301846150d8565b92915050565b600060408201905061580e60008301846150d8565b61581a602083016147c8565b92915050565b600060408201905061583560008301846150d8565b61584160208301614cc4565b92915050565b6000604051905081810181811067ffffffffffffffff8211171561586a57600080fd5b8060405250919050565b600067ffffffffffffffff82111561588b57600080fd5b601f19601f8301169050602081019050919050565b600067ffffffffffffffff8211156158b757600080fd5b601f19601f8301169050602081019050919050565b600081519050919050565b600081519050919050565b600081519050919050565b600082825260208201905092915050565b600081905092915050565b600082825260208201905092915050565b600081905092915050565b60006159308261598b565b9050919050565b60006159428261598b565b9050919050565b60008115159050919050565b6000819050919050565b60007fffffffff0000000000000000000000000000000000000000000000000000000082169050919050565b600073ffffffffffffffffffffffffffffffffffffffff82169050919050565b6000819050919050565b82818337600083830152505050565b60005b838110156159e25780820151818401526020810190506159c7565b838111156159f1576000848401525b50505050565b6000819050919050565b6000819050919050565b6000601f19601f8301169050919050565b615a2581615925565b8114615a3057600080fd5b50565b615a3c81615949565b8114615a4757600080fd5b50565b615a5381615955565b8114615a5e57600080fd5b50565b615a6a8161595f565b8114615a7557600080fd5b50565b615a81816159ab565b8114615a8c57600080fd5b5056fe4552433732313a207472616e7366657220746f206e6f6e20455243373231526563656976657220696d706c656d656e7465724552433732313a206f776e657220717565727920666f72206e6f6e6578697374656e7420746f6b656ea2646970667358221220dcb95498a5442f9e381efdd41b33b86b657e97041c747478e424d2c2f1c1c78964736f6c63430006020033",
  "linkReferences": {},
  "deployedLinkReferences": {}
}